{
  "contractName": "Migrator",
  "abi": [
    {
      "inputs": [
        {
          "internalType": "address",
          "name": "_soneMaster",
          "type": "address"
        },
        {
          "internalType": "address",
          "name": "_oldFactory",
          "type": "address"
        },
        {
          "internalType": "contract IUniswapV2Factory",
          "name": "_factory",
          "type": "address"
        },
        {
          "internalType": "uint256",
          "name": "_notBeforeBlock",
          "type": "uint256"
        }
      ],
      "stateMutability": "nonpayable",
      "type": "constructor"
    },
    {
      "inputs": [],
      "name": "desiredLiquidity",
      "outputs": [
        {
          "internalType": "uint256",
          "name": "",
          "type": "uint256"
        }
      ],
      "stateMutability": "view",
      "type": "function"
    },
    {
      "inputs": [],
      "name": "factory",
      "outputs": [
        {
          "internalType": "contract IUniswapV2Factory",
          "name": "",
          "type": "address"
        }
      ],
      "stateMutability": "view",
      "type": "function"
    },
    {
      "inputs": [],
      "name": "notBeforeBlock",
      "outputs": [
        {
          "internalType": "uint256",
          "name": "",
          "type": "uint256"
        }
      ],
      "stateMutability": "view",
      "type": "function"
    },
    {
      "inputs": [],
      "name": "oldFactory",
      "outputs": [
        {
          "internalType": "address",
          "name": "",
          "type": "address"
        }
      ],
      "stateMutability": "view",
      "type": "function"
    },
    {
      "inputs": [],
      "name": "soneMaster",
      "outputs": [
        {
          "internalType": "address",
          "name": "",
          "type": "address"
        }
      ],
      "stateMutability": "view",
      "type": "function"
    },
    {
      "inputs": [
        {
          "internalType": "contract IUniswapV2Pair",
          "name": "orig",
          "type": "address"
        }
      ],
      "name": "migrate",
      "outputs": [
        {
          "internalType": "contract IUniswapV2Pair",
          "name": "",
          "type": "address"
        }
      ],
      "stateMutability": "nonpayable",
      "type": "function"
    }
  ],
  "bytecode": "0x608060405260001960045534801561001657600080fd5b5060405161075e38038061075e8339818101604052608081101561003957600080fd5b50805160208201516040830151606090930151600080546001600160a01b03199081166001600160a01b039586161782556001805482169486169490941790935560028054909316939094169290921790556003556106c090819061009e90396000f3fe608060405234801561001057600080fd5b50600436106100625760003560e01c806305293137146100675780631bd6dfe11461008157806340dc0e37146100a5578063c45a0155146100ad578063ce5494bb146100b5578063db11bbc5146100db575b600080fd5b61006f6100e3565b60408051918252519081900360200190f35b6100896100e9565b604080516001600160a01b039092168252519081900360200190f35b61006f6100f8565b6100896100fe565b610089600480360360208110156100cb57600080fd5b50356001600160a01b031661010d565b61008961067b565b60035481565b6001546001600160a01b031681565b60045481565b6002546001600160a01b031681565b600080546001600160a01b03163314610163576040805162461bcd60e51b81526020600482015260136024820152723737ba10333937b69039b7b732a6b0b9ba32b960691b604482015290519081900360640190fd5b6003544310156101b1576040805162461bcd60e51b8152602060048201526014602482015273746f6f206561726c7920746f206d69677261746560601b604482015290519081900360640190fd5b6001546040805163c45a015560e01b815290516001600160a01b039283169285169163c45a0155916004808301926020929190829003018186803b1580156101f857600080fd5b505afa15801561020c573d6000803e3d6000fd5b505050506040513d602081101561022257600080fd5b50516001600160a01b031614610276576040805162461bcd60e51b81526020600482015260146024820152736e6f742066726f6d206f6c6420666163746f727960601b604482015290519081900360640190fd5b6000826001600160a01b0316630dfe16816040518163ffffffff1660e01b815260040160206040518083038186803b1580156102b157600080fd5b505afa1580156102c5573d6000803e3d6000fd5b505050506040513d60208110156102db57600080fd5b50516040805163d21220a760e01b815290519192506000916001600160a01b0386169163d21220a7916004808301926020929190829003018186803b15801561032357600080fd5b505afa158015610337573d6000803e3d6000fd5b505050506040513d602081101561034d57600080fd5b50516002546040805163e6a4390560e01b81526001600160a01b03868116600483015280851660248301529151939450600093919092169163e6a43905916044808301926020929190829003018186803b1580156103aa57600080fd5b505afa1580156103be573d6000803e3d6000fd5b505050506040513d60208110156103d457600080fd5b505190506001600160a01b03811661046c57600254604080516364e329cb60e11b81526001600160a01b03868116600483015285811660248301529151919092169163c9c653969160448083019260209291908290030181600087803b15801561043d57600080fd5b505af1158015610451573d6000803e3d6000fd5b505050506040513d602081101561046757600080fd5b505190505b6000856001600160a01b03166370a08231336040518263ffffffff1660e01b815260040180826001600160a01b0316815260200191505060206040518083038186803b1580156104bb57600080fd5b505afa1580156104cf573d6000803e3d6000fd5b505050506040513d60208110156104e557600080fd5b50519050806104f957509250610676915050565b6004818155604080516323b872dd60e01b815233928101929092526001600160a01b0388166024830181905260448301849052905190916323b872dd9160648083019260209291908290030181600087803b15801561055757600080fd5b505af115801561056b573d6000803e3d6000fd5b505050506040513d602081101561058157600080fd5b50506040805163226bf2d160e21b81526001600160a01b0384811660048301528251908916926389afcb4492602480820193918290030181600087803b1580156105ca57600080fd5b505af11580156105de573d6000803e3d6000fd5b505050506040513d60408110156105f457600080fd5b5050604080516335313c2160e11b815233600482015290516001600160a01b03841691636a6278429160248083019260209291908290030181600087803b15801561063e57600080fd5b505af1158015610652573d6000803e3d6000fd5b505050506040513d602081101561066857600080fd5b505060001960045550925050505b919050565b6000546001600160a01b03168156fea2646970667358221220b64530dcf512fc235a913c96fba615496ee8f7684f026d9af1f89151b089edb464736f6c634300060c0033",
  "immutableReferences": {},
  "source": "// SPDX-License-Identifier: MIT\npragma solidity 0.6.12;\n\nimport \"./uniswapv2/interfaces/IUniswapV2Pair.sol\";\nimport \"./uniswapv2/interfaces/IUniswapV2Factory.sol\";\n\n\ncontract Migrator {\n    address public soneMaster;\n    address public oldFactory;\n    IUniswapV2Factory public factory;\n    uint256 public notBeforeBlock;\n    uint256 public desiredLiquidity = uint256(-1);\n\n    constructor(\n        address _soneMaster,\n        address _oldFactory,\n        IUniswapV2Factory _factory,\n        uint256 _notBeforeBlock\n    ) public {\n        soneMaster = _soneMaster;\n        oldFactory = _oldFactory;\n        factory = _factory;\n        notBeforeBlock = _notBeforeBlock;\n    }\n\n    function migrate(IUniswapV2Pair orig) public returns (IUniswapV2Pair) {\n        require(msg.sender == soneMaster, \"not from soneMaster\");\n        require(block.number >= notBeforeBlock, \"too early to migrate\");\n        require(orig.factory() == oldFactory, \"not from old factory\"); // it check orig is old pair from Uniswap\n        address token0 = orig.token0();\n        address token1 = orig.token1();\n        IUniswapV2Pair pair = IUniswapV2Pair(factory.getPair(token0, token1));\n        if (pair == IUniswapV2Pair(address(0))) {\n            pair = IUniswapV2Pair(factory.createPair(token0, token1));\n        }\n        uint256 lp = orig.balanceOf(msg.sender);\n        if (lp == 0) return pair;\n        desiredLiquidity = lp;\n        orig.transferFrom(msg.sender, address(orig), lp);\n        orig.burn(address(pair));\n        pair.mint(msg.sender);\n        desiredLiquidity = uint256(-1);\n        return pair;\n    }\n}",
  "sourcePath": "/Users/danielpham/Documentation/01_VNext/02_2021/03_S-ONE_Finance/02_Source/sone-smart-contract/contracts/Migrator.sol",
  "compiler": {
    "name": "solc",
    "version": "0.6.12+commit.27d51765.Emscripten.clang"
  },
  "schemaVersion": "3.4.1",
  "updatedAt": "2021-06-16T02:58:22.938Z",
  "devdoc": {
    "kind": "dev",
    "methods": {},
    "version": 1
  },
  "userdoc": {
    "kind": "user",
    "methods": {},
    "version": 1
  }
}