{
  "contractName": "SoneSwapRouter",
  "abi": [
    {
      "inputs": [
        {
          "internalType": "address",
          "name": "factory_",
          "type": "address"
        },
        {
          "internalType": "address",
          "name": "WETH_",
          "type": "address"
        }
      ],
      "stateMutability": "nonpayable",
      "type": "constructor"
    },
    {
      "inputs": [],
      "name": "WETH",
      "outputs": [
        {
          "internalType": "address",
          "name": "",
          "type": "address"
        }
      ],
      "stateMutability": "view",
      "type": "function"
    },
    {
      "inputs": [
        {
          "internalType": "address",
          "name": "tokenA",
          "type": "address"
        },
        {
          "internalType": "address",
          "name": "tokenB",
          "type": "address"
        },
        {
          "internalType": "uint256",
          "name": "amountADesired",
          "type": "uint256"
        },
        {
          "internalType": "uint256",
          "name": "amountBDesired",
          "type": "uint256"
        },
        {
          "internalType": "uint256",
          "name": "amountAMin",
          "type": "uint256"
        },
        {
          "internalType": "uint256",
          "name": "amountBMin",
          "type": "uint256"
        },
        {
          "internalType": "address",
          "name": "to",
          "type": "address"
        },
        {
          "internalType": "uint256",
          "name": "deadline",
          "type": "uint256"
        }
      ],
      "name": "addLiquidity",
      "outputs": [
        {
          "internalType": "uint256",
          "name": "amountA",
          "type": "uint256"
        },
        {
          "internalType": "uint256",
          "name": "amountB",
          "type": "uint256"
        },
        {
          "internalType": "uint256",
          "name": "liquidity",
          "type": "uint256"
        }
      ],
      "stateMutability": "nonpayable",
      "type": "function"
    },
    {
      "inputs": [
        {
          "internalType": "address",
          "name": "token",
          "type": "address"
        },
        {
          "internalType": "uint256",
          "name": "amountTokenDesired",
          "type": "uint256"
        },
        {
          "internalType": "uint256",
          "name": "amountTokenMin",
          "type": "uint256"
        },
        {
          "internalType": "uint256",
          "name": "amountETHMin",
          "type": "uint256"
        },
        {
          "internalType": "address",
          "name": "to",
          "type": "address"
        },
        {
          "internalType": "uint256",
          "name": "deadline",
          "type": "uint256"
        }
      ],
      "name": "addLiquidityETH",
      "outputs": [
        {
          "internalType": "uint256",
          "name": "amountToken",
          "type": "uint256"
        },
        {
          "internalType": "uint256",
          "name": "amountETH",
          "type": "uint256"
        },
        {
          "internalType": "uint256",
          "name": "liquidity",
          "type": "uint256"
        }
      ],
      "stateMutability": "payable",
      "type": "function"
    },
    {
      "inputs": [],
      "name": "factory",
      "outputs": [
        {
          "internalType": "address",
          "name": "",
          "type": "address"
        }
      ],
      "stateMutability": "view",
      "type": "function"
    },
    {
      "inputs": [
        {
          "internalType": "uint256",
          "name": "amountOut",
          "type": "uint256"
        },
        {
          "internalType": "uint256",
          "name": "reserveIn",
          "type": "uint256"
        },
        {
          "internalType": "uint256",
          "name": "reserveOut",
          "type": "uint256"
        }
      ],
      "name": "getAmountIn",
      "outputs": [
        {
          "internalType": "uint256",
          "name": "amountIn",
          "type": "uint256"
        }
      ],
      "stateMutability": "view",
      "type": "function"
    },
    {
      "inputs": [
        {
          "internalType": "uint256",
          "name": "amountIn",
          "type": "uint256"
        },
        {
          "internalType": "uint256",
          "name": "reserveIn",
          "type": "uint256"
        },
        {
          "internalType": "uint256",
          "name": "reserveOut",
          "type": "uint256"
        }
      ],
      "name": "getAmountOut",
      "outputs": [
        {
          "internalType": "uint256",
          "name": "amountOut",
          "type": "uint256"
        }
      ],
      "stateMutability": "view",
      "type": "function"
    },
    {
      "inputs": [
        {
          "internalType": "uint256",
          "name": "amountOut",
          "type": "uint256"
        },
        {
          "internalType": "address[]",
          "name": "path",
          "type": "address[]"
        }
      ],
      "name": "getAmountsIn",
      "outputs": [
        {
          "internalType": "uint256[]",
          "name": "amounts",
          "type": "uint256[]"
        }
      ],
      "stateMutability": "view",
      "type": "function"
    },
    {
      "inputs": [
        {
          "internalType": "uint256",
          "name": "amountIn",
          "type": "uint256"
        },
        {
          "internalType": "address[]",
          "name": "path",
          "type": "address[]"
        }
      ],
      "name": "getAmountsOut",
      "outputs": [
        {
          "internalType": "uint256[]",
          "name": "amounts",
          "type": "uint256[]"
        }
      ],
      "stateMutability": "view",
      "type": "function"
    },
    {
      "inputs": [
        {
          "internalType": "uint256",
          "name": "amountA",
          "type": "uint256"
        },
        {
          "internalType": "uint256",
          "name": "reserveA",
          "type": "uint256"
        },
        {
          "internalType": "uint256",
          "name": "reserveB",
          "type": "uint256"
        }
      ],
      "name": "quote",
      "outputs": [
        {
          "internalType": "uint256",
          "name": "amountB",
          "type": "uint256"
        }
      ],
      "stateMutability": "pure",
      "type": "function"
    },
    {
      "inputs": [
        {
          "internalType": "address",
          "name": "token",
          "type": "address"
        },
        {
          "internalType": "uint256",
          "name": "liquidity",
          "type": "uint256"
        },
        {
          "internalType": "uint256",
          "name": "amountTokenMin",
          "type": "uint256"
        },
        {
          "internalType": "uint256",
          "name": "amountETHMin",
          "type": "uint256"
        },
        {
          "internalType": "address",
          "name": "to",
          "type": "address"
        },
        {
          "internalType": "uint256",
          "name": "deadline",
          "type": "uint256"
        },
        {
          "internalType": "bool",
          "name": "approveMax",
          "type": "bool"
        },
        {
          "internalType": "uint8",
          "name": "v",
          "type": "uint8"
        },
        {
          "internalType": "bytes32",
          "name": "r",
          "type": "bytes32"
        },
        {
          "internalType": "bytes32",
          "name": "s",
          "type": "bytes32"
        }
      ],
      "name": "removeLiquidityETHWithPermit",
      "outputs": [
        {
          "internalType": "uint256",
          "name": "amountToken",
          "type": "uint256"
        },
        {
          "internalType": "uint256",
          "name": "amountETH",
          "type": "uint256"
        }
      ],
      "stateMutability": "nonpayable",
      "type": "function"
    },
    {
      "inputs": [
        {
          "internalType": "address",
          "name": "token",
          "type": "address"
        },
        {
          "internalType": "uint256",
          "name": "liquidity",
          "type": "uint256"
        },
        {
          "internalType": "uint256",
          "name": "amountTokenMin",
          "type": "uint256"
        },
        {
          "internalType": "uint256",
          "name": "amountETHMin",
          "type": "uint256"
        },
        {
          "internalType": "address",
          "name": "to",
          "type": "address"
        },
        {
          "internalType": "uint256",
          "name": "deadline",
          "type": "uint256"
        },
        {
          "internalType": "bool",
          "name": "approveMax",
          "type": "bool"
        },
        {
          "internalType": "uint8",
          "name": "v",
          "type": "uint8"
        },
        {
          "internalType": "bytes32",
          "name": "r",
          "type": "bytes32"
        },
        {
          "internalType": "bytes32",
          "name": "s",
          "type": "bytes32"
        }
      ],
      "name": "removeLiquidityETHWithPermitSupportingFeeOnTransferTokens",
      "outputs": [
        {
          "internalType": "uint256",
          "name": "amountETH",
          "type": "uint256"
        }
      ],
      "stateMutability": "nonpayable",
      "type": "function"
    },
    {
      "inputs": [
        {
          "internalType": "address",
          "name": "tokenA",
          "type": "address"
        },
        {
          "internalType": "address",
          "name": "tokenB",
          "type": "address"
        },
        {
          "internalType": "uint256",
          "name": "liquidity",
          "type": "uint256"
        },
        {
          "internalType": "uint256",
          "name": "amountAMin",
          "type": "uint256"
        },
        {
          "internalType": "uint256",
          "name": "amountBMin",
          "type": "uint256"
        },
        {
          "internalType": "address",
          "name": "to",
          "type": "address"
        },
        {
          "internalType": "uint256",
          "name": "deadline",
          "type": "uint256"
        },
        {
          "internalType": "bool",
          "name": "approveMax",
          "type": "bool"
        },
        {
          "internalType": "uint8",
          "name": "v",
          "type": "uint8"
        },
        {
          "internalType": "bytes32",
          "name": "r",
          "type": "bytes32"
        },
        {
          "internalType": "bytes32",
          "name": "s",
          "type": "bytes32"
        }
      ],
      "name": "removeLiquidityWithPermit",
      "outputs": [
        {
          "internalType": "uint256",
          "name": "amountA",
          "type": "uint256"
        },
        {
          "internalType": "uint256",
          "name": "amountB",
          "type": "uint256"
        }
      ],
      "stateMutability": "nonpayable",
      "type": "function"
    },
    {
      "inputs": [
        {
          "internalType": "uint256",
          "name": "amountOut",
          "type": "uint256"
        },
        {
          "internalType": "address[]",
          "name": "path",
          "type": "address[]"
        },
        {
          "internalType": "address",
          "name": "to",
          "type": "address"
        },
        {
          "internalType": "uint256",
          "name": "deadline",
          "type": "uint256"
        }
      ],
      "name": "swapETHForExactTokens",
      "outputs": [
        {
          "internalType": "uint256[]",
          "name": "amounts",
          "type": "uint256[]"
        }
      ],
      "stateMutability": "payable",
      "type": "function"
    },
    {
      "inputs": [
        {
          "internalType": "uint256",
          "name": "amountOutMin",
          "type": "uint256"
        },
        {
          "internalType": "address[]",
          "name": "path",
          "type": "address[]"
        },
        {
          "internalType": "address",
          "name": "to",
          "type": "address"
        },
        {
          "internalType": "uint256",
          "name": "deadline",
          "type": "uint256"
        }
      ],
      "name": "swapExactETHForTokens",
      "outputs": [
        {
          "internalType": "uint256[]",
          "name": "amounts",
          "type": "uint256[]"
        }
      ],
      "stateMutability": "payable",
      "type": "function"
    },
    {
      "inputs": [
        {
          "internalType": "uint256",
          "name": "amountOutMin",
          "type": "uint256"
        },
        {
          "internalType": "address[]",
          "name": "path",
          "type": "address[]"
        },
        {
          "internalType": "address",
          "name": "to",
          "type": "address"
        },
        {
          "internalType": "uint256",
          "name": "deadline",
          "type": "uint256"
        }
      ],
      "name": "swapExactETHForTokensSupportingFeeOnTransferTokens",
      "outputs": [],
      "stateMutability": "payable",
      "type": "function"
    },
    {
      "inputs": [
        {
          "internalType": "uint256",
          "name": "amountIn",
          "type": "uint256"
        },
        {
          "internalType": "uint256",
          "name": "amountOutMin",
          "type": "uint256"
        },
        {
          "internalType": "address[]",
          "name": "path",
          "type": "address[]"
        },
        {
          "internalType": "address",
          "name": "to",
          "type": "address"
        },
        {
          "internalType": "uint256",
          "name": "deadline",
          "type": "uint256"
        }
      ],
      "name": "swapExactTokensForETH",
      "outputs": [
        {
          "internalType": "uint256[]",
          "name": "amounts",
          "type": "uint256[]"
        }
      ],
      "stateMutability": "nonpayable",
      "type": "function"
    },
    {
      "inputs": [
        {
          "internalType": "uint256",
          "name": "amountIn",
          "type": "uint256"
        },
        {
          "internalType": "uint256",
          "name": "amountOutMin",
          "type": "uint256"
        },
        {
          "internalType": "address[]",
          "name": "path",
          "type": "address[]"
        },
        {
          "internalType": "address",
          "name": "to",
          "type": "address"
        },
        {
          "internalType": "uint256",
          "name": "deadline",
          "type": "uint256"
        }
      ],
      "name": "swapExactTokensForETHSupportingFeeOnTransferTokens",
      "outputs": [],
      "stateMutability": "nonpayable",
      "type": "function"
    },
    {
      "inputs": [
        {
          "internalType": "uint256",
          "name": "amountIn",
          "type": "uint256"
        },
        {
          "internalType": "uint256",
          "name": "amountOutMin",
          "type": "uint256"
        },
        {
          "internalType": "address[]",
          "name": "path",
          "type": "address[]"
        },
        {
          "internalType": "address",
          "name": "to",
          "type": "address"
        },
        {
          "internalType": "uint256",
          "name": "deadline",
          "type": "uint256"
        }
      ],
      "name": "swapExactTokensForTokens",
      "outputs": [
        {
          "internalType": "uint256[]",
          "name": "amounts",
          "type": "uint256[]"
        }
      ],
      "stateMutability": "nonpayable",
      "type": "function"
    },
    {
      "inputs": [
        {
          "internalType": "uint256",
          "name": "amountIn",
          "type": "uint256"
        },
        {
          "internalType": "uint256",
          "name": "amountOutMin",
          "type": "uint256"
        },
        {
          "internalType": "address[]",
          "name": "path",
          "type": "address[]"
        },
        {
          "internalType": "address",
          "name": "to",
          "type": "address"
        },
        {
          "internalType": "uint256",
          "name": "deadline",
          "type": "uint256"
        }
      ],
      "name": "swapExactTokensForTokensSupportingFeeOnTransferTokens",
      "outputs": [],
      "stateMutability": "nonpayable",
      "type": "function"
    },
    {
      "inputs": [
        {
          "internalType": "uint256",
          "name": "amountOut",
          "type": "uint256"
        },
        {
          "internalType": "uint256",
          "name": "amountInMax",
          "type": "uint256"
        },
        {
          "internalType": "address[]",
          "name": "path",
          "type": "address[]"
        },
        {
          "internalType": "address",
          "name": "to",
          "type": "address"
        },
        {
          "internalType": "uint256",
          "name": "deadline",
          "type": "uint256"
        }
      ],
      "name": "swapTokensForExactETH",
      "outputs": [
        {
          "internalType": "uint256[]",
          "name": "amounts",
          "type": "uint256[]"
        }
      ],
      "stateMutability": "nonpayable",
      "type": "function"
    },
    {
      "inputs": [
        {
          "internalType": "uint256",
          "name": "amountOut",
          "type": "uint256"
        },
        {
          "internalType": "uint256",
          "name": "amountInMax",
          "type": "uint256"
        },
        {
          "internalType": "address[]",
          "name": "path",
          "type": "address[]"
        },
        {
          "internalType": "address",
          "name": "to",
          "type": "address"
        },
        {
          "internalType": "uint256",
          "name": "deadline",
          "type": "uint256"
        }
      ],
      "name": "swapTokensForExactTokens",
      "outputs": [
        {
          "internalType": "uint256[]",
          "name": "amounts",
          "type": "uint256[]"
        }
      ],
      "stateMutability": "nonpayable",
      "type": "function"
    },
    {
      "stateMutability": "payable",
      "type": "receive"
    },
    {
      "inputs": [
        {
          "internalType": "uint256",
          "name": "amountIn",
          "type": "uint256"
        },
        {
          "internalType": "uint256",
          "name": "amountOutMin",
          "type": "uint256"
        },
        {
          "internalType": "address[]",
          "name": "path",
          "type": "address[]"
        },
        {
          "internalType": "address",
          "name": "to",
          "type": "address"
        },
        {
          "internalType": "uint256",
          "name": "deadline",
          "type": "uint256"
        }
      ],
      "name": "swapExactTokensForTokensNoFee",
      "outputs": [
        {
          "internalType": "uint256[]",
          "name": "amounts",
          "type": "uint256[]"
        }
      ],
      "stateMutability": "nonpayable",
      "type": "function"
    },
    {
      "inputs": [
        {
          "internalType": "address",
          "name": "tokenA",
          "type": "address"
        },
        {
          "internalType": "address",
          "name": "tokenB",
          "type": "address"
        },
        {
          "internalType": "uint256",
          "name": "liquidity",
          "type": "uint256"
        },
        {
          "internalType": "uint256",
          "name": "amountAMin",
          "type": "uint256"
        },
        {
          "internalType": "uint256",
          "name": "amountBMin",
          "type": "uint256"
        },
        {
          "internalType": "address",
          "name": "to",
          "type": "address"
        },
        {
          "internalType": "uint256",
          "name": "deadline",
          "type": "uint256"
        }
      ],
      "name": "removeLiquidity",
      "outputs": [
        {
          "internalType": "uint256",
          "name": "amountA",
          "type": "uint256"
        },
        {
          "internalType": "uint256",
          "name": "amountB",
          "type": "uint256"
        }
      ],
      "stateMutability": "nonpayable",
      "type": "function"
    },
    {
      "inputs": [
        {
          "internalType": "address",
          "name": "token",
          "type": "address"
        },
        {
          "internalType": "uint256",
          "name": "liquidity",
          "type": "uint256"
        },
        {
          "internalType": "uint256",
          "name": "amountTokenMin",
          "type": "uint256"
        },
        {
          "internalType": "uint256",
          "name": "amountETHMin",
          "type": "uint256"
        },
        {
          "internalType": "address",
          "name": "to",
          "type": "address"
        },
        {
          "internalType": "uint256",
          "name": "deadline",
          "type": "uint256"
        }
      ],
      "name": "removeLiquidityETH",
      "outputs": [
        {
          "internalType": "uint256",
          "name": "amountToken",
          "type": "uint256"
        },
        {
          "internalType": "uint256",
          "name": "amountETH",
          "type": "uint256"
        }
      ],
      "stateMutability": "nonpayable",
      "type": "function"
    },
    {
      "inputs": [
        {
          "internalType": "address",
          "name": "token",
          "type": "address"
        },
        {
          "internalType": "uint256",
          "name": "liquidity",
          "type": "uint256"
        },
        {
          "internalType": "uint256",
          "name": "amountTokenMin",
          "type": "uint256"
        },
        {
          "internalType": "uint256",
          "name": "amountETHMin",
          "type": "uint256"
        },
        {
          "internalType": "address",
          "name": "to",
          "type": "address"
        },
        {
          "internalType": "uint256",
          "name": "deadline",
          "type": "uint256"
        }
      ],
      "name": "removeLiquidityETHSupportingFeeOnTransferTokens",
      "outputs": [
        {
          "internalType": "uint256",
          "name": "amountETH",
          "type": "uint256"
        }
      ],
      "stateMutability": "nonpayable",
      "type": "function"
    },
    {
      "inputs": [
        {
          "internalType": "uint256",
          "name": "amountIn",
          "type": "uint256"
        },
        {
          "internalType": "uint256",
          "name": "amountAMin",
          "type": "uint256"
        },
        {
          "internalType": "uint256",
          "name": "amountBMin",
          "type": "uint256"
        },
        {
          "internalType": "uint256",
          "name": "amountOutMin",
          "type": "uint256"
        },
        {
          "internalType": "address[]",
          "name": "path",
          "type": "address[]"
        },
        {
          "internalType": "address",
          "name": "to",
          "type": "address"
        },
        {
          "internalType": "uint256",
          "name": "deadline",
          "type": "uint256"
        }
      ],
      "name": "addLiquidityOneToken",
      "outputs": [
        {
          "internalType": "uint256",
          "name": "amountA",
          "type": "uint256"
        },
        {
          "internalType": "uint256",
          "name": "amountB",
          "type": "uint256"
        },
        {
          "internalType": "uint256",
          "name": "liquidity",
          "type": "uint256"
        }
      ],
      "stateMutability": "nonpayable",
      "type": "function"
    },
    {
      "inputs": [
        {
          "internalType": "uint256",
          "name": "amountTokenMin",
          "type": "uint256"
        },
        {
          "internalType": "uint256",
          "name": "amountETHMin",
          "type": "uint256"
        },
        {
          "internalType": "uint256",
          "name": "amountOutTokenMin",
          "type": "uint256"
        },
        {
          "internalType": "address[]",
          "name": "path",
          "type": "address[]"
        },
        {
          "internalType": "address",
          "name": "to",
          "type": "address"
        },
        {
          "internalType": "uint256",
          "name": "deadline",
          "type": "uint256"
        }
      ],
      "name": "addLiquidityOneTokenETHExactETH",
      "outputs": [
        {
          "internalType": "uint256",
          "name": "amountToken",
          "type": "uint256"
        },
        {
          "internalType": "uint256",
          "name": "amountETH",
          "type": "uint256"
        },
        {
          "internalType": "uint256",
          "name": "liquidity",
          "type": "uint256"
        }
      ],
      "stateMutability": "payable",
      "type": "function"
    },
    {
      "inputs": [
        {
          "internalType": "uint256",
          "name": "amountIn",
          "type": "uint256"
        },
        {
          "internalType": "uint256",
          "name": "amountTokenMin",
          "type": "uint256"
        },
        {
          "internalType": "uint256",
          "name": "amountETHMin",
          "type": "uint256"
        },
        {
          "internalType": "uint256",
          "name": "amountOutETHMin",
          "type": "uint256"
        },
        {
          "internalType": "address[]",
          "name": "path",
          "type": "address[]"
        },
        {
          "internalType": "address",
          "name": "to",
          "type": "address"
        },
        {
          "internalType": "uint256",
          "name": "deadline",
          "type": "uint256"
        }
      ],
      "name": "addLiquidityOneTokenETHExactToken",
      "outputs": [
        {
          "internalType": "uint256",
          "name": "amountToken",
          "type": "uint256"
        },
        {
          "internalType": "uint256",
          "name": "amountETH",
          "type": "uint256"
        },
        {
          "internalType": "uint256",
          "name": "liquidity",
          "type": "uint256"
        }
      ],
      "stateMutability": "payable",
      "type": "function"
    }
  ],
  "bytecode": "0x60806040523480156200001157600080fd5b5060405162005b3938038062005b39833981810160405260408110156200003757600080fd5b508051602090910151600080546001600160a01b039384166001600160a01b03199182161790915560018054939092169216919091179055615aba806200007f6000396000f3fe6080604052600436106101bb5760003560e01c80638803dbee116100ec578063c45a01551161008a578063e8e3370011610064578063e8e3370014610d81578063ecde1d5d14610de3578063f305d71914610e78578063fb3bdb4114610ebe576101d6565b8063c45a015514610c44578063d06ca61f14610c59578063ded9382a14610d0e576101d6565b8063af2979eb116100c6578063af2979eb14610a7a578063b6f9de9514610acd578063ba2bbad314610b51578063baa2abde14610be7576101d6565b80638803dbee1461097d578063ad5c464814610a13578063ad615dec14610a44576101d6565b80634a25d94a11610159578063771c750e11610133578063771c750e1461078b578063791ac9471461082d5780637ff36ab5146108c357806385f8c25914610947576101d6565b80634a25d94a146105ec5780635b0d5984146106825780635c11d795146106f5576101d6565b80631f00ca74116101955780631f00ca74146103755780632195995c1461042a578063302e884f146104a857806338ed173914610556576101d6565b806302751cec146101db578063054d50d41461024757806318cbafe51461028f576101d6565b366101d6576001546001600160a01b031633146101d457fe5b005b600080fd5b3480156101e757600080fd5b5061022e600480360360c08110156101fe57600080fd5b506001600160a01b0381358116916020810135916040820135916060810135916080820135169060a00135610f42565b6040805192835260208301919091528051918290030190f35b34801561025357600080fd5b5061027d6004803603606081101561026a57600080fd5b50803590602081013590604001356110d7565b60408051918252519081900360200190f35b34801561029b57600080fd5b50610325600480360360a08110156102b257600080fd5b813591602081013591810190606081016040820135600160201b8111156102d857600080fd5b8201836020820111156102ea57600080fd5b803590602001918460208302840111600160201b8311171561030b57600080fd5b91935091506001600160a01b038135169060200135611164565b60408051602080825283518183015283519192839290830191858101910280838360005b83811015610361578181015183820152602001610349565b505050509050019250505060405180910390f35b34801561038157600080fd5b506103256004803603604081101561039857600080fd5b81359190810190604081016020820135600160201b8111156103b957600080fd5b8201836020820111156103cb57600080fd5b803590602001918460208302840111600160201b831117156103ec57600080fd5b9190808060200260200160405190810160405280939291908181526020018383602002808284376000920191909152509295506114a5945050505050565b34801561043657600080fd5b5061022e600480360361016081101561044e57600080fd5b506001600160a01b038135811691602081013582169160408201359160608101359160808201359160a08101359091169060c08101359060e081013515159060ff6101008201351690610120810135906101400135611530565b610538600480360360c08110156104be57600080fd5b81359160208101359160408201359190810190608081016060820135600160201b8111156104eb57600080fd5b8201836020820111156104fd57600080fd5b803590602001918460208302840111600160201b8311171561051e57600080fd5b91935091506001600160a01b038135169060200135611616565b60408051938452602084019290925282820152519081900360600190f35b34801561056257600080fd5b50610325600480360360a081101561057957600080fd5b813591602081013591810190606081016040820135600160201b81111561059f57600080fd5b8201836020820111156105b157600080fd5b803590602001918460208302840111600160201b831117156105d257600080fd5b91935091506001600160a01b0381351690602001356116e0565b3480156105f857600080fd5b50610325600480360360a081101561060f57600080fd5b813591602081013591810190606081016040820135600160201b81111561063557600080fd5b82018360208201111561064757600080fd5b803590602001918460208302840111600160201b8311171561066857600080fd5b91935091506001600160a01b038135169060200135611851565b34801561068e57600080fd5b5061027d60048036036101408110156106a657600080fd5b506001600160a01b0381358116916020810135916040820135916060810135916080820135169060a08101359060c081013515159060ff60e082013516906101008101359061012001356119e5565b34801561070157600080fd5b506101d4600480360360a081101561071857600080fd5b813591602081013591810190606081016040820135600160201b81111561073e57600080fd5b82018360208201111561075057600080fd5b803590602001918460208302840111600160201b8311171561077157600080fd5b91935091506001600160a01b038135169060200135611ac6565b34801561079757600080fd5b50610538600480360360e08110156107ae57600080fd5b81359160208101359160408201359160608101359181019060a081016080820135600160201b8111156107e057600080fd5b8201836020820111156107f257600080fd5b803590602001918460208302840111600160201b8311171561081357600080fd5b91935091506001600160a01b038135169060200135611d36565b34801561083957600080fd5b506101d4600480360360a081101561085057600080fd5b813591602081013591810190606081016040820135600160201b81111561087657600080fd5b82018360208201111561088857600080fd5b803590602001918460208302840111600160201b831117156108a957600080fd5b91935091506001600160a01b038135169060200135611e1b565b610325600480360360808110156108d957600080fd5b81359190810190604081016020820135600160201b8111156108fa57600080fd5b82018360208201111561090c57600080fd5b803590602001918460208302840111600160201b8311171561092d57600080fd5b91935091506001600160a01b038135169060200135612049565b34801561095357600080fd5b5061027d6004803603606081101561096a57600080fd5b508035906020810135906040013561234b565b34801561098957600080fd5b50610325600480360360a08110156109a057600080fd5b813591602081013591810190606081016040820135600160201b8111156109c657600080fd5b8201836020820111156109d857600080fd5b803590602001918460208302840111600160201b831117156109f957600080fd5b91935091506001600160a01b0381351690602001356123d0565b348015610a1f57600080fd5b50610a286124ef565b604080516001600160a01b039092168252519081900360200190f35b348015610a5057600080fd5b5061027d60048036036060811015610a6757600080fd5b50803590602081013590604001356124fe565b348015610a8657600080fd5b5061027d600480360360c0811015610a9d57600080fd5b506001600160a01b0381358116916020810135916040820135916060810135916080820135169060a0013561250b565b6101d460048036036080811015610ae357600080fd5b81359190810190604081016020820135600160201b811115610b0457600080fd5b820183602082011115610b1657600080fd5b803590602001918460208302840111600160201b83111715610b3757600080fd5b91935091506001600160a01b038135169060200135612717565b348015610b5d57600080fd5b50610325600480360360a0811015610b7457600080fd5b813591602081013591810190606081016040820135600160201b811115610b9a57600080fd5b820183602082011115610bac57600080fd5b803590602001918460208302840111600160201b83111715610bcd57600080fd5b91935091506001600160a01b038135169060200135612a1c565b348015610bf357600080fd5b5061022e600480360360e0811015610c0a57600080fd5b506001600160a01b038135811691602081013582169160408201359160608101359160808201359160a08101359091169060c00135612d8d565b348015610c5057600080fd5b50610a28612e87565b348015610c6557600080fd5b5061032560048036036040811015610c7c57600080fd5b81359190810190604081016020820135600160201b811115610c9d57600080fd5b820183602082011115610caf57600080fd5b803590602001918460208302840111600160201b83111715610cd057600080fd5b919080806020026020016040519081016040528093929190818152602001838360200280828437600092019190915250929550612e96945050505050565b348015610d1a57600080fd5b5061022e6004803603610140811015610d3257600080fd5b506001600160a01b0381358116916020810135916040820135916060810135916080820135169060a08101359060c081013515159060ff60e08201351690610100810135906101200135612ee7565b348015610d8d57600080fd5b506105386004803603610100811015610da557600080fd5b506001600160a01b038135811691602081013582169160408201359160608101359160808201359160a08101359160c0820135169060e00135612fe3565b610538600480360360e0811015610df957600080fd5b81359160208101359160408201359160608101359181019060a081016080820135600160201b811115610e2b57600080fd5b820183602082011115610e3d57600080fd5b803590602001918460208302840111600160201b83111715610e5e57600080fd5b91935091506001600160a01b038135169060200135613103565b610538600480360360c0811015610e8e57600080fd5b506001600160a01b0381358116916020810135916040820135916060810135916080820135169060a001356131aa565b61032560048036036080811015610ed457600080fd5b81359190810190604081016020820135600160201b811115610ef557600080fd5b820183602082011115610f0757600080fd5b803590602001918460208302840111600160201b83111715610f2857600080fd5b91935091506001600160a01b0381351690602001356133d0565b6000808242811015610f89576040805162461bcd60e51b81526020600482015260186024820152600080516020615a65833981519152604482015290519081900360640190fd5b60008054600154610fa8916001600160a01b03908116918d9116613701565b90506000816001600160a01b03166318160ddd6040518163ffffffff1660e01b815260040160206040518083038186803b158015610fe557600080fd5b505afa158015610ff9573d6000803e3d6000fd5b505050506040513d602081101561100f57600080fd5b5051600154909150611030908c906001600160a01b03168c8c8c308c613795565b90955093506110408b88876139c4565b60015460408051632e1a7d4d60e01b81526004810187905290516001600160a01b0390921691632e1a7d4d9160248082019260009290919082900301818387803b15801561108d57600080fd5b505af11580156110a1573d6000803e3d6000fd5b505050506110af8785613b2e565b6001546110c9908c906001600160a01b03168c848b613c26565b505050965096945050505050565b600061115c84848460008054906101000a90046001600160a01b03166001600160a01b03166354cf2aeb6040518163ffffffff1660e01b815260040160206040518083038186803b15801561112b57600080fd5b505afa15801561113f573d6000803e3d6000fd5b505050506040513d602081101561115557600080fd5b5051613db7565b949350505050565b606081428110156111aa576040805162461bcd60e51b81526020600482015260186024820152600080516020615a65833981519152604482015290519081900360640190fd5b6001546001600160a01b0316868660001981018181106111c657fe5b905060200201356001600160a01b03166001600160a01b03161461121f576040805162461bcd60e51b815260206004820152601d6024820152600080516020615982833981519152604482015290519081900360640190fd5b60005460408051602080890282810182019093528882526112d4936001600160a01b0316928c92918b918b91829190850190849080828437600092018290525054604080516354cf2aeb60e01b815290516001600160a01b0390921694506354cf2aeb93506004808201935060209291829003018186803b1580156112a357600080fd5b505afa1580156112b7573d6000803e3d6000fd5b505050506040513d60208110156112cd57600080fd5b5051613e93565b915086826001845103815181106112e757fe5b6020026020010151101561132c5760405162461bcd60e51b815260040180806020018281038252602b8152602001806159eb602b913960400191505060405180910390fd5b6113bd8686600081811061133c57fe5b905060200201356001600160a01b0316336113a360008054906101000a90046001600160a01b03168a8a600081811061137157fe5b905060200201356001600160a01b03168b8b600181811061138e57fe5b905060200201356001600160a01b0316613701565b856000815181106113b057fe5b6020026020010151613fe1565b6113fc8287878080602002602001604051908101604052809392919081815260200183836020028082843760009201919091525030925061413e915050565b60015482516001600160a01b0390911690632e1a7d4d908490600019810190811061142357fe5b60200260200101516040518263ffffffff1660e01b815260040180828152602001915050600060405180830381600087803b15801561146157600080fd5b505af1158015611475573d6000803e3d6000fd5b5050505061149a848360018551038151811061148d57fe5b6020026020010151613b2e565b509695505050505050565b600054604080516354cf2aeb60e01b81529051606092611527926001600160a01b03909116918691869184916354cf2aeb916004808301926020929190829003018186803b1580156114f657600080fd5b505afa15801561150a573d6000803e3d6000fd5b505050506040513d602081101561152057600080fd5b5051614358565b90505b92915050565b600080548190819061154c906001600160a01b03168f8f613701565b905060008761155b578c61155f565b6000195b6040805163d505accf60e01b815233600482015230602482015260448101839052606481018c905260ff8a16608482015260a4810189905260c4810188905290519192506001600160a01b0384169163d505accf9160e48082019260009290919082900301818387803b1580156115d557600080fd5b505af11580156115e9573d6000803e3d6000fd5b505050506115fc8f8f8f8f8f8f8f612d8d565b809450819550505050509b509b9950505050505050505050565b6000806000834281101561165f576040805162461bcd60e51b81526020600482015260186024820152600080516020615a65833981519152604482015290519081900360640190fd5b606061167861166f346002614491565b8b8b8b8b6144d3565b90506116cb8989600181811061168a57fe5b905060200201356001600160a01b0316826001815181106116a757fe5b60200260200101516116c360023461449190919063ffffffff16565b8f8f8c6147ab565b919e909d50909b509950505050505050505050565b60608142811015611726576040805162461bcd60e51b81526020600482015260186024820152600080516020615a65833981519152604482015290519081900360640190fd5b60005460408051602080890282810182019093528882526117aa936001600160a01b0316928c92918b918b91829190850190849080828437600092018290525054604080516354cf2aeb60e01b815290516001600160a01b0390921694506354cf2aeb93506004808201935060209291829003018186803b1580156112a357600080fd5b915086826001845103815181106117bd57fe5b602002602001015110156118025760405162461bcd60e51b815260040180806020018281038252602b8152602001806159eb602b913960400191505060405180910390fd5b6118128686600081811061133c57fe5b61149a8287878080602002602001604051908101604052809392919081815260200183836020028082843760009201919091525089925061413e915050565b60608142811015611897576040805162461bcd60e51b81526020600482015260186024820152600080516020615a65833981519152604482015290519081900360640190fd5b6001546001600160a01b0316868660001981018181106118b357fe5b905060200201356001600160a01b03166001600160a01b03161461190c576040805162461bcd60e51b815260206004820152601d6024820152600080516020615982833981519152604482015290519081900360640190fd5b6000546040805160208089028281018201909352888252611990936001600160a01b0316928c92918b918b91829190850190849080828437600092018290525054604080516354cf2aeb60e01b815290516001600160a01b0390921694506354cf2aeb93506004808201935060209291829003018186803b1580156114f657600080fd5b915086826000815181106119a057fe5b6020026020010151111561132c5760405162461bcd60e51b815260040180806020018281038252602781526020018061595b6027913960400191505060405180910390fd5b600080546001548291611a06916001600160a01b03918216918f9116613701565b9050600086611a15578b611a19565b6000195b6040805163d505accf60e01b815233600482015230602482015260448101839052606481018b905260ff8916608482015260a4810188905260c4810187905290519192506001600160a01b0384169163d505accf9160e48082019260009290919082900301818387803b158015611a8f57600080fd5b505af1158015611aa3573d6000803e3d6000fd5b50505050611ab58d8d8d8d8d8d61250b565b9d9c50505050505050505050505050565b8042811015611b0a576040805162461bcd60e51b81526020600482015260186024820152600080516020615a65833981519152604482015290519081900360640190fd5b611b7285856000818110611b1a57fe5b905060200201356001600160a01b031633611b6c60008054906101000a90046001600160a01b031689896000818110611b4f57fe5b905060200201356001600160a01b03168a8a600181811061138e57fe5b8a613fe1565b600085856000198101818110611b8457fe5b905060200201356001600160a01b03166001600160a01b03166370a08231856040518263ffffffff1660e01b815260040180826001600160a01b0316815260200191505060206040518083038186803b158015611be057600080fd5b505afa158015611bf4573d6000803e3d6000fd5b505050506040513d6020811015611c0a57600080fd5b50516040805160208881028281018201909352888252929350611c4c92909189918991829185019084908082843760009201919091525088925061498e915050565b86611cef8288886000198101818110611c6157fe5b905060200201356001600160a01b03166001600160a01b03166370a08231886040518263ffffffff1660e01b815260040180826001600160a01b0316815260200191505060206040518083038186803b158015611cbd57600080fd5b505afa158015611cd1573d6000803e3d6000fd5b505050506040513d6020811015611ce757600080fd5b505190614cb4565b1015611d2c5760405162461bcd60e51b815260040180806020018281038252602b8152602001806159eb602b913960400191505060405180910390fd5b5050505050505050565b60008060008342811015611d7f576040805162461bcd60e51b81526020600482015260186024820152600080516020615a65833981519152604482015290519081900360640190fd5b6000611d8c8d6002614491565b90506060611d9d828c8c8c8c614cf6565b9050878d8d611dfb8d8d600081611db057fe5b905060200201356001600160a01b03168e8e6001818110611dcd57fe5b905060200201356001600160a01b03168787600181518110611deb57fe5b6020026020010151868689614e47565b809950819a50829b50505050505050505050985098509895505050505050565b8042811015611e5f576040805162461bcd60e51b81526020600482015260186024820152600080516020615a65833981519152604482015290519081900360640190fd5b6001546001600160a01b031685856000198101818110611e7b57fe5b905060200201356001600160a01b03166001600160a01b031614611ed4576040805162461bcd60e51b815260206004820152601d6024820152600080516020615982833981519152604482015290519081900360640190fd5b611ee485856000818110611b1a57fe5b611f2285858080602002602001604051908101604052809392919081815260200183836020028082843760009201919091525030925061498e915050565b600154604080516370a0823160e01b815230600482015290516000926001600160a01b0316916370a08231916024808301926020929190829003018186803b158015611f6d57600080fd5b505afa158015611f81573d6000803e3d6000fd5b505050506040513d6020811015611f9757600080fd5b5051905086811015611fda5760405162461bcd60e51b815260040180806020018281038252602b8152602001806159eb602b913960400191505060405180910390fd5b60015460408051632e1a7d4d60e01b81526004810184905290516001600160a01b0390921691632e1a7d4d9160248082019260009290919082900301818387803b15801561202757600080fd5b505af115801561203b573d6000803e3d6000fd5b50505050611d2c8482613b2e565b6060814281101561208f576040805162461bcd60e51b81526020600482015260186024820152600080516020615a65833981519152604482015290519081900360640190fd5b6001546001600160a01b031686866000816120a657fe5b905060200201356001600160a01b03166001600160a01b0316146120ff576040805162461bcd60e51b815260206004820152601d6024820152600080516020615982833981519152604482015290519081900360640190fd5b6000546040805160208089028281018201909352888252612183936001600160a01b0316923492918b918b91829190850190849080828437600092018290525054604080516354cf2aeb60e01b815290516001600160a01b0390921694506354cf2aeb93506004808201935060209291829003018186803b1580156112a357600080fd5b9150868260018451038151811061219657fe5b602002602001015110156121db5760405162461bcd60e51b815260040180806020018281038252602b8152602001806159eb602b913960400191505060405180910390fd5b60015482516001600160a01b039091169063d0e30db09084906000906121fd57fe5b60200260200101516040518263ffffffff1660e01b81526004016000604051808303818588803b15801561223057600080fd5b505af1158015612244573d6000803e3d6000fd5b5050600154600080546001600160a01b03928316955063a9059cbb94506122759350909116908a908a9081611b4f57fe5b8460008151811061228257fe5b60200260200101516040518363ffffffff1660e01b815260040180836001600160a01b0316815260200182815260200192505050602060405180830381600087803b1580156122d057600080fd5b505af11580156122e4573d6000803e3d6000fd5b505050506040513d60208110156122fa57600080fd5b505161230257fe5b6123418287878080602002602001604051908101604052809392919081815260200183836020028082843760009201919091525089925061413e915050565b5095945050505050565b600061115c84848460008054906101000a90046001600160a01b03166001600160a01b03166354cf2aeb6040518163ffffffff1660e01b815260040160206040518083038186803b15801561239f57600080fd5b505afa1580156123b3573d6000803e3d6000fd5b505050506040513d60208110156123c957600080fd5b5051614f21565b60608142811015612416576040805162461bcd60e51b81526020600482015260186024820152600080516020615a65833981519152604482015290519081900360640190fd5b600054604080516020808902828101820190935288825261249a936001600160a01b0316928c92918b918b91829190850190849080828437600092018290525054604080516354cf2aeb60e01b815290516001600160a01b0390921694506354cf2aeb93506004808201935060209291829003018186803b1580156114f657600080fd5b915086826000815181106124aa57fe5b602002602001015111156118025760405162461bcd60e51b815260040180806020018281038252602781526020018061595b6027913960400191505060405180910390fd5b6001546001600160a01b031681565b600061115c848484614ffd565b60008142811015612551576040805162461bcd60e51b81526020600482015260186024820152600080516020615a65833981519152604482015290519081900360640190fd5b60008054600154612570916001600160a01b03908116918c9116613701565b90506000816001600160a01b03166318160ddd6040518163ffffffff1660e01b815260040160206040518083038186803b1580156125ad57600080fd5b505afa1580156125c1573d6000803e3d6000fd5b505050506040513d60208110156125d757600080fd5b50516001549091506125f8908b906001600160a01b03168b8b8b308b613795565b9050809450506126818a878c6001600160a01b03166370a08231306040518263ffffffff1660e01b815260040180826001600160a01b0316815260200191505060206040518083038186803b15801561265057600080fd5b505afa158015612664573d6000803e3d6000fd5b505050506040513d602081101561267a57600080fd5b50516139c4565b60015460408051632e1a7d4d60e01b81526004810187905290516001600160a01b0390921691632e1a7d4d9160248082019260009290919082900301818387803b1580156126ce57600080fd5b505af11580156126e2573d6000803e3d6000fd5b505050506126f08685613b2e565b60015461270a908b906001600160a01b03168b848a613c26565b5050509695505050505050565b804281101561275b576040805162461bcd60e51b81526020600482015260186024820152600080516020615a65833981519152604482015290519081900360640190fd5b6001546001600160a01b0316858560008161277257fe5b905060200201356001600160a01b03166001600160a01b0316146127cb576040805162461bcd60e51b815260206004820152601d6024820152600080516020615982833981519152604482015290519081900360640190fd5b60015460408051630d0e30db60e41b8152905134926001600160a01b03169163d0e30db091849160048082019260009290919082900301818588803b15801561281357600080fd5b505af1158015612827573d6000803e3d6000fd5b5050600154600080546001600160a01b03928316955063a9059cbb94506128589350909116908a908a9081611b4f57fe5b836040518363ffffffff1660e01b815260040180836001600160a01b0316815260200182815260200192505050602060405180830381600087803b15801561289f57600080fd5b505af11580156128b3573d6000803e3d6000fd5b505050506040513d60208110156128c957600080fd5b50516128d157fe5b6000868660001981018181106128e357fe5b905060200201356001600160a01b03166001600160a01b03166370a08231866040518263ffffffff1660e01b815260040180826001600160a01b0316815260200191505060206040518083038186803b15801561293f57600080fd5b505afa158015612953573d6000803e3d6000fd5b505050506040513d602081101561296957600080fd5b505160408051602089810282810182019093528982529293506129ab9290918a918a91829185019084908082843760009201919091525089925061498e915050565b87611cef82898960001981018181106129c057fe5b905060200201356001600160a01b03166001600160a01b03166370a08231896040518263ffffffff1660e01b815260040180826001600160a01b0316815260200191505060206040518083038186803b158015611cbd57600080fd5b60608142811015612a62576040805162461bcd60e51b81526020600482015260186024820152600080516020615a65833981519152604482015290519081900360640190fd5b6000546040805160208089028281018201909352888252612aac936001600160a01b0316928c92918b918b9182919085019084908082843760009201829052509250613e93915050565b915081600181518110612abb57fe5b602002602001015160001415612af057604080516002808252606082018352909160208301908036833701905050915061149a565b600080612b3588886000818110612b0357fe5b905060200201356001600160a01b031689896001818110612b2057fe5b905060200201356001600160a01b03166150a3565b60008054929450909250908190612b8b906001600160a01b03168b8b8481612b5957fe5b905060200201356001600160a01b03168c8c6001818110612b7657fe5b905060200201356001600160a01b0316615181565b9150915089896001818110612b9c57fe5b905060200201356001600160a01b03166001600160a01b0316846001600160a01b0316148015612bdf575085600181518110612bd457fe5b602002602001015182105b15612c1f57600260005b50604051908082528060200260200182016040528015612c13578160200160208202803683370190505b5095505050505061149a565b89896001818110612c2c57fe5b905060200201356001600160a01b03166001600160a01b0316836001600160a01b0316148015612c6f575085600181518110612c6457fe5b602002602001015181105b15612c7d5760026000612be9565b8a86600181518110612c8b57fe5b60200260200101511015612cd05760405162461bcd60e51b815260040180806020018281038252602b8152602001806159eb602b913960400191505060405180910390fd5b612d3f8a8a6000818110612ce057fe5b905060200201356001600160a01b031633612d3260008054906101000a90046001600160a01b03168e8e6000818110612d1557fe5b905060200201356001600160a01b03168f8f600181811061138e57fe5b896000815181106113b057fe5b612d7e868b8b808060200260200160405190810160405280939291908181526020018383602002808284376000920191909152508d925061413e915050565b50505050509695505050505050565b6000808242811015612dd4576040805162461bcd60e51b81526020600482015260186024820152600080516020615a65833981519152604482015290519081900360640190fd5b60008054612dec906001600160a01b03168c8c613701565b90506000816001600160a01b03166318160ddd6040518163ffffffff1660e01b815260040160206040518083038186803b158015612e2957600080fd5b505afa158015612e3d573d6000803e3d6000fd5b505050506040513d6020811015612e5357600080fd5b50519050612e668c8c8c8c8c8c8c613795565b9095509350612e788c8c8c848b613c26565b50505097509795505050505050565b6000546001600160a01b031681565b600054604080516354cf2aeb60e01b81529051606092611527926001600160a01b03909116918691869184916354cf2aeb916004808301926020929190829003018186803b1580156112a357600080fd5b6000806000612f1f60008054906101000a90046001600160a01b03168e600160009054906101000a90046001600160a01b0316613701565b9050600087612f2e578c612f32565b6000195b6040805163d505accf60e01b815233600482015230602482015260448101839052606481018c905260ff8a16608482015260a4810189905260c4810188905290519192506001600160a01b0384169163d505accf9160e48082019260009290919082900301818387803b158015612fa857600080fd5b505af1158015612fbc573d6000803e3d6000fd5b50505050612fce8e8e8e8e8e8e610f42565b909f909e509c50505050505050505050505050565b6000806000834281101561302c576040805162461bcd60e51b81526020600482015260186024820152600080516020615a65833981519152604482015290519081900360640190fd5b61303a8c8c8c8c8c8c61524e565b6000805492965090945090613059906001600160a01b03168e8e613701565b90506130678d338388613fe1565b6130738c338387613fe1565b806001600160a01b0316636a627842886040518263ffffffff1660e01b815260040180826001600160a01b03168152602001915050602060405180830381600087803b1580156130c257600080fd5b505af11580156130d6573d6000803e3d6000fd5b505050506040513d60208110156130ec57600080fd5b5051949d939c50939a509198505050505050505050565b6000806000834281101561314c576040805162461bcd60e51b81526020600482015260186024820152600080516020615a65833981519152604482015290519081900360640190fd5b60006131598d6002614491565b90506060613169828c8c8c61546f565b9050878d8d611dfb8d8d60008161317c57fe5b905060200201356001600160a01b0316868660018151811061319a57fe5b60200260200101518585886147ab565b600080600083428110156131f3576040805162461bcd60e51b81526020600482015260186024820152600080516020615a65833981519152604482015290519081900360640190fd5b60015461320e908b906001600160a01b03168b348c8c61524e565b6000805460015493975091955091613234916001600160a01b03908116918e9116613701565b90506132428b338388613fe1565b600160009054906101000a90046001600160a01b03166001600160a01b031663d0e30db0856040518263ffffffff1660e01b81526004016000604051808303818588803b15801561329257600080fd5b505af11580156132a6573d6000803e3d6000fd5b50506001546040805163a9059cbb60e01b81526001600160a01b038781166004830152602482018b9052915191909216945063a9059cbb9350604480830193506020928290030181600087803b1580156132ff57600080fd5b505af1158015613313573d6000803e3d6000fd5b505050506040513d602081101561332957600080fd5b505161333157fe5b806001600160a01b0316636a627842886040518263ffffffff1660e01b815260040180826001600160a01b03168152602001915050602060405180830381600087803b15801561338057600080fd5b505af1158015613394573d6000803e3d6000fd5b505050506040513d60208110156133aa57600080fd5b50519250348410156133c2576133c233853403613b2e565b505096509650969350505050565b60608142811015613416576040805162461bcd60e51b81526020600482015260186024820152600080516020615a65833981519152604482015290519081900360640190fd5b6001546001600160a01b0316868660008161342d57fe5b905060200201356001600160a01b03166001600160a01b031614613486576040805162461bcd60e51b815260206004820152601d6024820152600080516020615982833981519152604482015290519081900360640190fd5b600054604080516020808902828101820190935288825261350a936001600160a01b0316928b92918b918b91829190850190849080828437600092018290525054604080516354cf2aeb60e01b815290516001600160a01b0390921694506354cf2aeb93506004808201935060209291829003018186803b1580156114f657600080fd5b9150348260008151811061351a57fe5b6020026020010151111561355f5760405162461bcd60e51b815260040180806020018281038252602781526020018061595b6027913960400191505060405180910390fd5b60015482516001600160a01b039091169063d0e30db090849060009061358157fe5b60200260200101516040518263ffffffff1660e01b81526004016000604051808303818588803b1580156135b457600080fd5b505af11580156135c8573d6000803e3d6000fd5b5050600154600080546001600160a01b03928316955063a9059cbb94506135f99350909116908a908a9081611b4f57fe5b8460008151811061360657fe5b60200260200101516040518363ffffffff1660e01b815260040180836001600160a01b0316815260200182815260200192505050602060405180830381600087803b15801561365457600080fd5b505af1158015613668573d6000803e3d6000fd5b505050506040513d602081101561367e57600080fd5b505161368657fe5b6136c58287878080602002602001604051908101604052809392919081815260200183836020028082843760009201919091525089925061413e915050565b816000815181106136d257fe5b60200260200101513411156123415761234133836000815181106136f257fe5b60200260200101513403613b2e565b6000836001600160a01b031663e6a4390584846040518363ffffffff1660e01b815260040180836001600160a01b03168152602001826001600160a01b031681526020019250505060206040518083038186803b15801561376157600080fd5b505afa158015613775573d6000803e3d6000fd5b505050506040513d602081101561378b57600080fd5b5051949350505050565b60008082428110156137dc576040805162461bcd60e51b81526020600482015260186024820152600080516020615a65833981519152604482015290519081900360640190fd5b600080546137f4906001600160a01b03168c8c613701565b604080516323b872dd60e01b81523360048201526001600160a01b03831660248201819052604482018d9052915192935090916323b872dd916064808201926020929091908290030181600087803b15801561384f57600080fd5b505af1158015613863573d6000803e3d6000fd5b505050506040513d602081101561387957600080fd5b50506040805163226bf2d160e21b81526001600160a01b03888116600483015282516000938493928616926389afcb44926024808301939282900301818787803b1580156138c657600080fd5b505af11580156138da573d6000803e3d6000fd5b505050506040513d60408110156138f057600080fd5b5080516020909101519092509050600061390a8e8e6150a3565b509050806001600160a01b03168e6001600160a01b03161461392d578183613930565b82825b90975095508a8710156139745760405162461bcd60e51b81526004018080602001828103825260268152602001806159a26026913960400191505060405180910390fd5b898610156139b35760405162461bcd60e51b81526004018080602001828103825260268152602001806158c76026913960400191505060405180910390fd5b505050505097509795505050505050565b604080516001600160a01b038481166024830152604480830185905283518084039091018152606490920183526020820180516001600160e01b031663a9059cbb60e01b178152925182516000946060949389169392918291908083835b60208310613a415780518252601f199092019160209182019101613a22565b6001836020036101000a0380198251168184511680821785525050505050509050019150506000604051808303816000865af19150503d8060008114613aa3576040519150601f19603f3d011682016040523d82523d6000602084013e613aa8565b606091505b5091509150818015613ad6575080511580613ad65750808060200190516020811015613ad357600080fd5b50515b613b27576040805162461bcd60e51b815260206004820152601f60248201527f5472616e7366657248656c7065723a205452414e534645525f4641494c454400604482015290519081900360640190fd5b5050505050565b604080516000808252602082019092526001600160a01b0384169083906040518082805190602001908083835b60208310613b7a5780518252601f199092019160209182019101613b5b565b6001836020036101000a03801982511681845116808217855250505050505090500191505060006040518083038185875af1925050503d8060008114613bdc576040519150601f19603f3d011682016040523d82523d6000602084013e613be1565b606091505b5050905080613c215760405162461bcd60e51b81526004018080602001828103825260238152602001806159c86023913960400191505060405180910390fd5b505050565b60006001600160a01b031660008054906101000a90046001600160a01b03166001600160a01b0316633f18dab56040518163ffffffff1660e01b815260040160206040518083038186803b158015613c7d57600080fd5b505afa158015613c91573d6000803e3d6000fd5b505050506040513d6020811015613ca757600080fd5b50516001600160a01b031614613b275760008054906101000a90046001600160a01b03166001600160a01b0316633f18dab56040518163ffffffff1660e01b815260040160206040518083038186803b158015613d0357600080fd5b505afa158015613d17573d6000803e3d6000fd5b505050506040513d6020811015613d2d57600080fd5b5051604080516367ca988d60e01b81526001600160a01b038881166004830152878116602483015260448201879052606482018690528481166084830152915191909216916367ca988d9160a480830192600092919082900301818387803b158015613d9857600080fd5b505af1158015613dac573d6000803e3d6000fd5b505050505050505050565b6000808511613df75760405162461bcd60e51b815260040180806020018281038252602b815260200180615a3a602b913960400191505060405180910390fd5b600084118015613e075750600083115b613e425760405162461bcd60e51b81526004018080602001828103825260288152602001806158ed6028913960400191505060405180910390fd5b6000613e53866103e88590036156c6565b90506000613e6182866156c6565b90506000613e7b83613e75896103e86156c6565b9061571f565b9050808281613e8657fe5b0498975050505050505050565b6060600283511015613eec576040805162461bcd60e51b815260206004820152601e60248201527f556e697377617056324c6962726172793a20494e56414c49445f504154480000604482015290519081900360640190fd5b825167ffffffffffffffff81118015613f0457600080fd5b50604051908082528060200260200182016040528015613f2e578160200160208202803683370190505b5090508381600081518110613f3f57fe5b60200260200101818152505060005b6001845103811015613fd857600080613f9188878581518110613f6d57fe5b6020026020010151888660010181518110613f8457fe5b6020026020010151615181565b91509150613fb4848481518110613fa457fe5b6020026020010151838388613db7565b848460010181518110613fc357fe5b60209081029190910101525050600101613f4e565b50949350505050565b604080516001600160a01b0385811660248301528481166044830152606480830185905283518084039091018152608490920183526020820180516001600160e01b03166323b872dd60e01b17815292518251600094606094938a169392918291908083835b602083106140665780518252601f199092019160209182019101614047565b6001836020036101000a0380198251168184511680821785525050505050509050019150506000604051808303816000865af19150503d80600081146140c8576040519150601f19603f3d011682016040523d82523d6000602084013e6140cd565b606091505b50915091508180156140fb5750805115806140fb57508080602001905160208110156140f857600080fd5b50515b6141365760405162461bcd60e51b8152600401808060200182810382526024815260200180615a166024913960400191505060405180910390fd5b505050505050565b60005b60018351038110156143525760008084838151811061415c57fe5b602002602001015185846001018151811061417357fe5b602002602001015191509150600061418b83836150a3565b509050600087856001018151811061419f57fe5b60200260200101519050600080836001600160a01b0316866001600160a01b0316146141cd578260006141d1565b6000835b91509150600060028a510388106141e85788614219565b6000548a51614219916001600160a01b03169088908d9060028d0190811061420c57fe5b6020026020010151613701565b600054909150614233906001600160a01b03168888613701565b6001600160a01b031663022c0d9f84848460006040519080825280601f01601f191660200182016040528015614270576020820181803683370190505b506040518563ffffffff1660e01b815260040180858152602001848152602001836001600160a01b0316815260200180602001828103825283818151815260200191508051906020019080838360005b838110156142d85781810151838201526020016142c0565b50505050905090810190601f1680156143055780820380516001836020036101000a031916815260200191505b5095505050505050600060405180830381600087803b15801561432757600080fd5b505af115801561433b573d6000803e3d6000fd5b505060019099019850614141975050505050505050565b50505050565b60606002835110156143b1576040805162461bcd60e51b815260206004820152601e60248201527f556e697377617056324c6962726172793a20494e56414c49445f504154480000604482015290519081900360640190fd5b825167ffffffffffffffff811180156143c957600080fd5b506040519080825280602002602001820160405280156143f3578160200160208202803683370190505b509050838160018351038151811061440757fe5b60209081029190910101528251600019015b8015613fd8576000806144498887600186038151811061443557fe5b6020026020010151888681518110613f8457fe5b9150915061446c84848151811061445c57fe5b6020026020010151838388614f21565b84600185038151811061447b57fe5b6020908102919091010152505060001901614419565b600061152783836040518060400160405280601a81526020017f536166654d6174683a206469766973696f6e206279207a65726f000000000000815250615779565b6001546060906001600160a01b031684846000816144ed57fe5b905060200201356001600160a01b03166001600160a01b031614614546576040805162461bcd60e51b815260206004820152601d6024820152600080516020615982833981519152604482015290519081900360640190fd5b60005460408051602080870282810182019093528682526145ca936001600160a01b0316928a929189918991829190850190849080828437600092018290525054604080516354cf2aeb60e01b815290516001600160a01b0390921694506354cf2aeb93506004808201935060209291829003018186803b1580156112a357600080fd5b905084816001815181106145da57fe5b6020026020010151101561461f5760405162461bcd60e51b815260040180806020018281038252602b8152602001806159eb602b913960400191505060405180910390fd5b60015481516001600160a01b039091169063d0e30db090839060009061464157fe5b60200260200101516040518263ffffffff1660e01b81526004016000604051808303818588803b15801561467457600080fd5b505af1158015614688573d6000803e3d6000fd5b5050600154600080546001600160a01b03928316955063a9059cbb94506146d693509091169088908890816146b957fe5b905060200201356001600160a01b03168888600181811061138e57fe5b836000815181106146e357fe5b60200260200101516040518363ffffffff1660e01b815260040180836001600160a01b0316815260200182815260200192505050602060405180830381600087803b15801561473157600080fd5b505af1158015614745573d6000803e3d6000fd5b505050506040513d602081101561475b57600080fd5b505161476357fe5b6147a28185858080602002602001604051908101604052809392919081815260200183836020028082843760009201919091525087925061413e915050565b95945050505050565b600154600090819081906147cd908a906001600160a01b03168a8a8a8a61524e565b60008054600154939650919450916147f3916001600160a01b03908116918d9116613701565b90506148018a338387613fe1565b600160009054906101000a90046001600160a01b03166001600160a01b031663d0e30db0846040518263ffffffff1660e01b81526004016000604051808303818588803b15801561485157600080fd5b505af1158015614865573d6000803e3d6000fd5b50506001546040805163a9059cbb60e01b81526001600160a01b038781166004830152602482018a9052915191909216945063a9059cbb9350604480830193506020928290030181600087803b1580156148be57600080fd5b505af11580156148d2573d6000803e3d6000fd5b505050506040513d60208110156148e857600080fd5b50516148f057fe5b806001600160a01b0316636a627842866040518263ffffffff1660e01b815260040180826001600160a01b03168152602001915050602060405180830381600087803b15801561493f57600080fd5b505af1158015614953573d6000803e3d6000fd5b505050506040513d602081101561496957600080fd5b50519150828811156149815761498133848a03613b2e565b5096509650969350505050565b60005b6001835103811015613c21576000808483815181106149ac57fe5b60200260200101518584600101815181106149c357fe5b60200260200101519150915060006149db83836150a3565b5060008054919250906149f8906001600160a01b03168585613701565b9050600080600080846001600160a01b0316630902f1ac6040518163ffffffff1660e01b815260040160606040518083038186803b158015614a3957600080fd5b505afa158015614a4d573d6000803e3d6000fd5b505050506040513d6060811015614a6357600080fd5b5080516020909101516001600160701b0391821693501690506000806001600160a01b038a811690891614614a99578284614a9c565b83835b91509150614af1828b6001600160a01b03166370a082318a6040518263ffffffff1660e01b815260040180826001600160a01b0316815260200191505060206040518083038186803b158015611cbd57600080fd5b9550614b4586838360008054906101000a90046001600160a01b03166001600160a01b03166354cf2aeb6040518163ffffffff1660e01b815260040160206040518083038186803b15801561112b57600080fd5b945050505050600080856001600160a01b0316886001600160a01b031614614b6f57826000614b73565b6000835b91509150600060028c51038a10614b8a578a614bae565b6000548c51614bae916001600160a01b0316908a908f9060028f0190811061420c57fe5b604080516000808252602082019283905263022c0d9f60e01b835260248201878152604483018790526001600160a01b038086166064850152608060848501908152845160a48601819052969750908c169563022c0d9f958a958a958a9591949193919260c486019290918190849084905b83811015614c38578181015183820152602001614c20565b50505050905090810190601f168015614c655780820380516001836020036101000a031916815260200191505b5095505050505050600060405180830381600087803b158015614c8757600080fd5b505af1158015614c9b573d6000803e3d6000fd5b50506001909b019a506149919950505050505050505050565b600061152783836040518060400160405280601e81526020017f536166654d6174683a207375627472616374696f6e206f766572666c6f77000081525061581b565b6060614d8360008054906101000a90046001600160a01b031687868680806020026020016040519081016040528093929190818152602001838360200280828437600092018290525054604080516354cf2aeb60e01b815290516001600160a01b0390921694506354cf2aeb93506004808201935060209291829003018186803b1580156112a357600080fd5b90508481600181518110614d9357fe5b60200260200101511015614dd85760405162461bcd60e51b815260040180806020018281038252602b8152602001806159eb602b913960400191505060405180910390fd5b61476384846000818110614de857fe5b905060200201356001600160a01b031633614e3a60008054906101000a90046001600160a01b031688886000818110614e1d57fe5b905060200201356001600160a01b03168989600181811061138e57fe5b846000815181106113b057fe5b6000806000614e5a8a8a8a8a8a8a61524e565b6000805492955090935090614e79906001600160a01b03168c8c613701565b9050614e878b338387613fe1565b614e938a338386613fe1565b806001600160a01b0316636a627842866040518263ffffffff1660e01b815260040180826001600160a01b03168152602001915050602060405180830381600087803b158015614ee257600080fd5b505af1158015614ef6573d6000803e3d6000fd5b505050506040513d6020811015614f0c57600080fd5b5051939b929a50929850909650505050505050565b6000808511614f615760405162461bcd60e51b815260040180806020018281038252602c815260200180615876602c913960400191505060405180910390fd5b600084118015614f715750600083115b614fac5760405162461bcd60e51b81526004018080602001828103825260288152602001806158ed6028913960400191505060405180910390fd5b6000614fc46103e8614fbe87896156c6565b906156c6565b90506000614fdb6103e8859003614fbe878a614cb4565b9050614ff26001828481614feb57fe5b049061571f565b979650505050505050565b600080841161503d5760405162461bcd60e51b81526004018080602001828103825260258152602001806159366025913960400191505060405180910390fd5b60008311801561504d5750600082115b6150885760405162461bcd60e51b81526004018080602001828103825260288152602001806158ed6028913960400191505060405180910390fd5b8261509385846156c6565b8161509a57fe5b04949350505050565b600080826001600160a01b0316846001600160a01b031614156150f75760405162461bcd60e51b81526004018080602001828103825260258152602001806158a26025913960400191505060405180910390fd5b826001600160a01b0316846001600160a01b03161061511757828461511a565b83835b90925090506001600160a01b03821661517a576040805162461bcd60e51b815260206004820152601e60248201527f556e697377617056324c6962726172793a205a45524f5f414444524553530000604482015290519081900360640190fd5b9250929050565b600080600061519085856150a3565b50905060006151a0878787613701565b9050600080826001600160a01b0316630902f1ac6040518163ffffffff1660e01b815260040160606040518083038186803b1580156151de57600080fd5b505afa1580156151f2573d6000803e3d6000fd5b505050506040513d606081101561520857600080fd5b5080516020909101516001600160701b0391821693501690506001600160a01b038881169085161461523b57808261523e565b81815b909a909950975050505050505050565b600080546040805163e6a4390560e01b81526001600160a01b038a811660048301528981166024830152915184938493169163e6a43905916044808301926020929190829003018186803b1580156152a557600080fd5b505afa1580156152b9573d6000803e3d6000fd5b505050506040513d60208110156152cf57600080fd5b50516001600160a01b031614156153675760008054604080516364e329cb60e11b81526001600160a01b038c811660048301528b811660248301529151919092169263c9c6539692604480820193602093909283900390910190829087803b15801561533a57600080fd5b505af115801561534e573d6000803e3d6000fd5b505050506040513d602081101561536457600080fd5b50505b600080548190615381906001600160a01b03168b8b615181565b91509150816000148015615393575080155b156153a357879350869250615462565b60006153b0898484614ffd565b905087811161540357858110156153f85760405162461bcd60e51b81526004018080602001828103825260268152602001806158c76026913960400191505060405180910390fd5b8894509250826110c9565b6000615410898486614ffd565b90508981111561541c57fe5b8781101561545b5760405162461bcd60e51b81526004018080602001828103825260268152602001806159a26026913960400191505060405180910390fd5b9450879350505b5050965096945050505050565b600180546060916001600160a01b03909116908490849081811061548f57fe5b905060200201356001600160a01b03166001600160a01b0316146154e8576040805162461bcd60e51b815260206004820152601d6024820152600080516020615982833981519152604482015290519081900360640190fd5b600054604080516020808602828101820190935285825261556c936001600160a01b03169289929188918891829190850190849080828437600092018290525054604080516354cf2aeb60e01b815290516001600160a01b0390921694506354cf2aeb93506004808201935060209291829003018186803b1580156112a357600080fd5b9050838160018151811061557c57fe5b602002602001015110156155c15760405162461bcd60e51b815260040180806020018281038252602b8152602001806159eb602b913960400191505060405180910390fd5b615606838360008181106155d157fe5b905060200201356001600160a01b031633614e3a60008054906101000a90046001600160a01b0316878760008181106146b957fe5b6156458184848080602002602001604051908101604052809392919081815260200183836020028082843760009201919091525030925061413e915050565b6001805482516001600160a01b0390911691632e1a7d4d91849190811061566857fe5b60200260200101516040518263ffffffff1660e01b815260040180828152602001915050600060405180830381600087803b1580156156a657600080fd5b505af11580156156ba573d6000803e3d6000fd5b50505050949350505050565b6000826156d55750600061152a565b828202828482816156e257fe5b04146115275760405162461bcd60e51b81526004018080602001828103825260218152602001806159156021913960400191505060405180910390fd5b600082820183811015611527576040805162461bcd60e51b815260206004820152601b60248201527f536166654d6174683a206164646974696f6e206f766572666c6f770000000000604482015290519081900360640190fd5b600081836158055760405162461bcd60e51b81526004018080602001828103825283818151815260200191508051906020019080838360005b838110156157ca5781810151838201526020016157b2565b50505050905090810190601f1680156157f75780820380516001836020036101000a031916815260200191505b509250505060405180910390fd5b50600083858161581157fe5b0495945050505050565b6000818484111561586d5760405162461bcd60e51b81526020600482018181528351602484015283519092839260449091019190850190808383600083156157ca5781810151838201526020016157b2565b50505090039056fe556e697377617056324c6962726172793a20494e53554646494349454e545f4f55545055545f414d4f554e54556e697377617056324c6962726172793a204944454e544943414c5f414444524553534553556e69737761705632526f757465723a20494e53554646494349454e545f425f414d4f554e54556e697377617056324c6962726172793a20494e53554646494349454e545f4c4951554944495459536166654d6174683a206d756c7469706c69636174696f6e206f766572666c6f77556e697377617056324c6962726172793a20494e53554646494349454e545f414d4f554e54556e69737761705632526f757465723a204558434553534956455f494e5055545f414d4f554e54556e69737761705632526f757465723a20494e56414c49445f50415448000000556e69737761705632526f757465723a20494e53554646494349454e545f415f414d4f554e545472616e7366657248656c7065723a204554485f5452414e534645525f4641494c4544556e69737761705632526f757465723a20494e53554646494349454e545f4f55545055545f414d4f554e545472616e7366657248656c7065723a205452414e534645525f46524f4d5f4641494c4544556e697377617056324c6962726172793a20494e53554646494349454e545f494e5055545f414d4f554e54556e69737761705632526f757465723a20455850495245440000000000000000a2646970667358221220bc405c2ba3d3e042ff465fede81161aeb44fd1687a0b205284ca5e2855ada3e864736f6c634300060c0033",
  "immutableReferences": {},
  "source": "// SPDX-License-Identifier: MIT\npragma solidity =0.6.12;\n\nimport './uniswapv2/UniswapV2Router02.sol';\n\ncontract SoneSwapRouter is UniswapV2Router02{\n    constructor(address factory_, address WETH_) \n        UniswapV2Router02 (factory_, WETH_)\n        public {}\n\n    function swapExactTokensForTokensNoFee(\n        uint amountIn,\n        uint amountOutMin,\n        address[] calldata path,\n        address to,\n        uint deadline\n    )\n    external ensure(deadline) returns (uint[] memory amounts) {\n        amounts = UniswapV2Library.getAmountsOut(factory, amountIn, path, 0);\n        if(amounts[1] == 0) return new uint[](2);\n        (address token0, address token1) = UniswapV2Library.sortTokens(path[0], path[1]);\n        (uint reserve0, uint reserve1) = UniswapV2Library.getReserves(factory, path[0], path[1]);\n        if(token0 == path[1] && reserve0 < amounts[1]) return new uint[](2);\n        if(token1 == path[1] && reserve1 < amounts[1]) return new uint[](2);\n        require(amounts[1] >= amountOutMin, 'UniswapV2Router: INSUFFICIENT_OUTPUT_AMOUNT');\n        TransferHelper.safeTransferFrom(\n            path[0], msg.sender, UniswapV2Library.pairFor(factory, path[0], path[1]), amounts[0]\n        );\n        _swap(amounts, path, to);\n    }\n\n    function removeLiquidity(\n        address tokenA,\n        address tokenB,\n        uint liquidity,\n        uint amountAMin,\n        uint amountBMin,\n        address to,\n        uint deadline\n    ) public virtual override ensure(deadline) returns (uint amountA, uint amountB) {\n        address pair = UniswapV2Library.pairFor(factory, tokenA, tokenB);\n        uint256 totalSupply = IUniswapV2Pair(pair).totalSupply();\n        (amountA, amountB) = _removeLiquidity(tokenA, tokenB, liquidity, amountAMin, amountBMin, to, deadline);\n        _convert(tokenA, tokenB, liquidity, totalSupply, to);\n    }\n\n    function removeLiquidityETH(\n        address token,\n        uint liquidity,\n        uint amountTokenMin,\n        uint amountETHMin,\n        address to,\n        uint deadline\n    ) public virtual override ensure(deadline) returns (uint amountToken, uint amountETH) {\n        address pair = UniswapV2Library.pairFor(factory, token, WETH);\n        uint256 totalSupply = IUniswapV2Pair(pair).totalSupply();\n        (amountToken, amountETH) = _removeLiquidity(\n            token,\n            WETH,\n            liquidity,\n            amountTokenMin,\n            amountETHMin,\n            address(this),\n            deadline\n        );\n        TransferHelper.safeTransfer(token, to, amountToken);\n        IWETH(WETH).withdraw(amountETH);\n        TransferHelper.safeTransferETH(to, amountETH);\n        _convert(token, WETH, liquidity, totalSupply, to);\n    }\n\n    // **** REMOVE LIQUIDITY (supporting fee-on-transfer tokens) ****\n    function removeLiquidityETHSupportingFeeOnTransferTokens(\n        address token,\n        uint liquidity,\n        uint amountTokenMin,\n        uint amountETHMin,\n        address to,\n        uint deadline\n    ) public virtual override ensure(deadline) returns (uint amountETH) {\n        address pair = UniswapV2Library.pairFor(factory, token, WETH);\n        uint256 totalSupply = IUniswapV2Pair(pair).totalSupply();\n        (, amountETH) = _removeLiquidity(\n            token,\n            WETH,\n            liquidity,\n            amountTokenMin,\n            amountETHMin,\n            address(this),\n            deadline\n        );\n        TransferHelper.safeTransfer(token, to, IERC20(token).balanceOf(address(this)));\n        IWETH(WETH).withdraw(amountETH);\n        TransferHelper.safeTransferETH(to, amountETH);\n        _convert(token, WETH, liquidity, totalSupply, to);\n    }\n\n    function _removeLiquidity(\n        address tokenA,\n        address tokenB,\n        uint liquidity,\n        uint amountAMin,\n        uint amountBMin,\n        address to,\n        uint deadline\n    ) internal ensure(deadline) returns (uint amountA, uint amountB) {\n        address pair = UniswapV2Library.pairFor(factory, tokenA, tokenB);\n        IUniswapV2Pair(pair).transferFrom(msg.sender, pair, liquidity); // send liquidity to pair\n        (uint amount0, uint amount1) = IUniswapV2Pair(pair).burn(to);\n        (address token0,) = UniswapV2Library.sortTokens(tokenA, tokenB);\n        (amountA, amountB) = tokenA == token0 ? (amount0, amount1) : (amount1, amount0);\n        require(amountA >= amountAMin, 'UniswapV2Router: INSUFFICIENT_A_AMOUNT');\n        require(amountB >= amountBMin, 'UniswapV2Router: INSUFFICIENT_B_AMOUNT');\n    }\n\n    function addLiquidityOneToken(\n        uint amountIn,\n        uint amountAMin,\n        uint amountBMin,\n        uint amountOutMin,\n        address[] calldata path,\n        address to,\n        uint deadline\n    ) external virtual ensure(deadline) returns (uint amountA, uint amountB, uint liquidity) {\n        uint _amountTokenIn = amountIn.div(2);\n        uint[] memory amounts = _swapExactTokensForTokensOneMode(_amountTokenIn, amountOutMin, path, to);\n        address _to = to;\n        {\n        uint _amountAMin = amountAMin;\n        uint _amountBMin = amountBMin;\n        (amountA, amountB, liquidity) = _addLiquidityOneMode(path[0], path[1], _amountTokenIn, amounts[1], _amountAMin, _amountBMin, _to);\n        }\n    }\n\n    function addLiquidityOneTokenETHExactETH(\n        uint amountTokenMin,\n        uint amountETHMin,\n        uint amountOutTokenMin,\n        address[] calldata path,\n        address to,\n        uint deadline\n    ) external virtual payable ensure(deadline) returns (uint amountToken, uint amountETH, uint liquidity) {\n        uint[] memory amounts = _swapExactETHForTokensOneMode(msg.value.div(2), amountOutTokenMin, path, to);\n        (amountToken, amountETH, liquidity) = _addLiquidityETHOneMode(path[1], amounts[1], msg.value.div(2), amountTokenMin, amountETHMin, to);\n    }\n\n    function addLiquidityOneTokenETHExactToken(\n        uint amountIn,\n        uint amountTokenMin,\n        uint amountETHMin,\n        uint amountOutETHMin,\n        address[] calldata path,\n        address to,\n        uint deadline\n    ) external virtual payable ensure(deadline) returns (uint amountToken, uint amountETH, uint liquidity) {\n        uint _amountIn = amountIn.div(2);\n        uint[] memory amounts = _swapExactTokensForETHOneMode(_amountIn, amountOutETHMin, path);\n        {\n        address _to = to;\n        uint _amountTokenMin = amountTokenMin;\n        uint _amountETHMin = amountETHMin;\n        (amountToken, amountETH, liquidity) = _addLiquidityETHOneMode(path[0], _amountIn, amounts[1], _amountTokenMin, _amountETHMin, _to);\n        }\n    }\n\n\n    function _convert(address tokenA, address tokenB, uint liquidity, uint totalSupply, address to) internal{\n        if(IUniswapV2Factory(factory).soneConvert() != address(0)){\n            ISoneConvert(IUniswapV2Factory(factory).soneConvert()).convertToSone(\n                tokenA,\n                tokenB,\n                liquidity,\n                totalSupply,\n                to\n            );\n        }\n    }\n\n    function _swapExactTokensForTokensOneMode(\n        uint amountIn,\n        uint amountOutMin,\n        address[] calldata path,\n        address to\n    ) private returns (uint[] memory amounts) {\n        amounts = UniswapV2Library.getAmountsOut(factory, amountIn, path, IUniswapV2Factory(factory).swapFee());\n        require(amounts[1] >= amountOutMin, 'UniswapV2Router: INSUFFICIENT_OUTPUT_AMOUNT');\n        TransferHelper.safeTransferFrom(\n            path[0], msg.sender, UniswapV2Library.pairFor(factory, path[0], path[1]), amounts[0]\n        );\n        _swap(amounts, path, to);\n    }\n\n    function _addLiquidityOneMode(\n        address tokenA,\n        address tokenB,\n        uint amountADesired,\n        uint amountBDesired,\n        uint amountAMin,\n        uint amountBMin,\n        address to\n    ) private returns (uint amountA, uint amountB, uint liquidity) {\n        (amountA, amountB) = _addLiquidity(tokenA, tokenB, amountADesired, amountBDesired, amountAMin, amountBMin);\n        address pair = UniswapV2Library.pairFor(factory, tokenA, tokenB);\n        TransferHelper.safeTransferFrom(tokenA, msg.sender, pair, amountA);\n        TransferHelper.safeTransferFrom(tokenB, msg.sender, pair, amountB);\n        liquidity = IUniswapV2Pair(pair).mint(to);\n    }\n\n    function _swapExactETHForTokensOneMode(\n        uint amountETHMin,\n        uint amountOutMin, \n        address[] calldata path, \n        address to\n    ) private returns (uint[] memory amounts)\n    {\n        require(path[0] == WETH, 'UniswapV2Router: INVALID_PATH');\n        amounts = UniswapV2Library.getAmountsOut(factory, amountETHMin, path, IUniswapV2Factory(factory).swapFee());\n        require(amounts[1] >= amountOutMin, 'UniswapV2Router: INSUFFICIENT_OUTPUT_AMOUNT');\n        IWETH(WETH).deposit{value: amounts[0]}();\n        assert(IWETH(WETH).transfer(UniswapV2Library.pairFor(factory, path[0], path[1]), amounts[0]));\n        _swap(amounts, path, to);\n    }\n\n    function _addLiquidityETHOneMode(\n        address token,\n        uint amountTokenDesired,\n        uint amountETHDesired,\n        uint amountTokenMin,\n        uint amountETHMin,\n        address to\n    ) private returns (uint amountToken, uint amountETH, uint liquidity) {\n        (amountToken, amountETH) = _addLiquidity(\n            token,\n            WETH,\n            amountTokenDesired,\n            amountETHDesired,\n            amountTokenMin,\n            amountETHMin\n        );\n        address pair = UniswapV2Library.pairFor(factory, token, WETH);\n        TransferHelper.safeTransferFrom(token, msg.sender, pair, amountToken);\n        IWETH(WETH).deposit{value: amountETH}();\n        assert(IWETH(WETH).transfer(pair, amountETH));\n        liquidity = IUniswapV2Pair(pair).mint(to);\n        // refund dust eth, if any\n        if (amountETHDesired > amountETH) TransferHelper.safeTransferETH(msg.sender, amountETHDesired - amountETH);\n    }\n\n    function _swapExactTokensForETHOneMode(uint amountIn, uint amountOutMin, address[] calldata path)\n        private\n        returns (uint[] memory amounts)\n    {\n        require(path[1] == WETH, 'UniswapV2Router: INVALID_PATH');\n        amounts = UniswapV2Library.getAmountsOut(factory, amountIn, path, IUniswapV2Factory(factory).swapFee());\n        require(amounts[1] >= amountOutMin, 'UniswapV2Router: INSUFFICIENT_OUTPUT_AMOUNT');\n        TransferHelper.safeTransferFrom(\n            path[0], msg.sender, UniswapV2Library.pairFor(factory, path[0], path[1]), amounts[0]\n        );\n        _swap(amounts, path, address(this));\n        IWETH(WETH).withdraw(amounts[1]);\n    }\n}",
  "sourcePath": "/Users/danielpham/Documentation/01_VNext/02_2021/03_S-ONE_Finance/02_Source/sone-smart-contract/contracts/SoneSwapRouter.sol",
  "compiler": {
    "name": "solc",
    "version": "0.6.12+commit.27d51765.Emscripten.clang"
  },
  "schemaVersion": "3.4.1",
  "updatedAt": "2021-06-16T02:58:22.999Z",
  "devdoc": {
    "kind": "dev",
    "methods": {},
    "version": 1
  },
  "userdoc": {
    "kind": "user",
    "methods": {},
    "version": 1
  }
}