{
  "contractName": "SoneConvert",
  "abi": [
    {
      "inputs": [
        {
          "internalType": "address",
          "name": "_sone",
          "type": "address"
        },
        {
          "internalType": "address",
          "name": "_weth",
          "type": "address"
        },
        {
          "internalType": "contract IUniswapV2Factory",
          "name": "_factory",
          "type": "address"
        },
        {
          "internalType": "contract ISoneSwapRouter",
          "name": "_soneSwapRouter",
          "type": "address"
        }
      ],
      "stateMutability": "nonpayable",
      "type": "constructor"
    },
    {
      "inputs": [],
      "name": "factory",
      "outputs": [
        {
          "internalType": "contract IUniswapV2Factory",
          "name": "",
          "type": "address"
        }
      ],
      "stateMutability": "view",
      "type": "function"
    },
    {
      "inputs": [],
      "name": "sone",
      "outputs": [
        {
          "internalType": "address",
          "name": "",
          "type": "address"
        }
      ],
      "stateMutability": "view",
      "type": "function"
    },
    {
      "inputs": [],
      "name": "soneSwapRouter",
      "outputs": [
        {
          "internalType": "contract ISoneSwapRouter",
          "name": "",
          "type": "address"
        }
      ],
      "stateMutability": "view",
      "type": "function"
    },
    {
      "inputs": [],
      "name": "weth",
      "outputs": [
        {
          "internalType": "address",
          "name": "",
          "type": "address"
        }
      ],
      "stateMutability": "view",
      "type": "function"
    },
    {
      "inputs": [
        {
          "internalType": "address",
          "name": "token0",
          "type": "address"
        },
        {
          "internalType": "address",
          "name": "token1",
          "type": "address"
        },
        {
          "internalType": "uint256",
          "name": "liquidity",
          "type": "uint256"
        },
        {
          "internalType": "uint256",
          "name": "totalSupply",
          "type": "uint256"
        },
        {
          "internalType": "address",
          "name": "to",
          "type": "address"
        }
      ],
      "name": "convertToSone",
      "outputs": [],
      "stateMutability": "nonpayable",
      "type": "function"
    }
  ],
  "bytecode": "0x608060405234801561001057600080fd5b506040516118253803806118258339818101604052608081101561003357600080fd5b50805160208201516040830151606090930151600080546001600160a01b039485166001600160a01b0319918216179091556001805493851693821693909317909255600280549484169483169490941790935560038054929093169116179055611782806100a36000396000f3fe608060405234801561001057600080fd5b50600436106100575760003560e01c80633fc8cef31461005c57806361fd563d1461008057806367ca988d14610088578063bc7de55b146100ce578063c45a0155146100d6575b600080fd5b6100646100de565b604080516001600160a01b039092168252519081900360200190f35b6100646100ed565b6100cc600480360360a081101561009e57600080fd5b506001600160a01b0381358116916020810135821691604082013591606081013591608090910135166100fc565b005b61006461041d565b61006461042c565b6001546001600160a01b031681565b6003546001600160a01b031681565b6002546040805163e6a4390560e01b81526001600160a01b03888116600483015287811660248301529151600093929092169163e6a4390591604480820192602092909190829003018186803b15801561015557600080fd5b505afa158015610169573d6000803e3d6000fd5b505050506040513d602081101561017f57600080fd5b505190506001600160a01b0381166101cf576040805162461bcd60e51b815260206004820152600e60248201526d14105254881393d5081193d5539160921b604482015290519081900360640190fd5b6000816001600160a01b03166370a08231306040518263ffffffff1660e01b815260040180826001600160a01b0316815260200191505060206040518083038186803b15801561021e57600080fd5b505afa158015610232573d6000803e3d6000fd5b505050506040513d602081101561024857600080fd5b505160025460408051622fcfcb60e31b8152905192935060009261034f926001600160a01b03878116936370a0823193919092169163017e7e58916004808301926020929190829003018186803b1580156102a257600080fd5b505afa1580156102b6573d6000803e3d6000fd5b505050506040513d60208110156102cc57600080fd5b5051604080516001600160e01b031960e085901b1681526001600160a01b039092166004830152516024808301926020929190829003018186803b15801561031357600080fd5b505afa158015610327573d6000803e3d6000fd5b505050506040513d602081101561033d57600080fd5b5051610349878561043b565b9061043b565b90506000610367826103618986610486565b906104df565b905080156104125761037a848583610521565b600080856001600160a01b03166389afcb44306040518263ffffffff1660e01b815260040180826001600160a01b031681526020019150506040805180830381600087803b1580156103cb57600080fd5b505af11580156103df573d6000803e3d6000fd5b505050506040513d60408110156103f557600080fd5b508051602090910151909250905061040f8683838a6106bb565b50505b505050505050505050565b6000546001600160a01b031681565b6002546001600160a01b031681565b600061047d83836040518060400160405280601e81526020017f536166654d6174683a207375627472616374696f6e206f766572666c6f770000815250610c58565b90505b92915050565b60008261049557506000610480565b828202828482816104a257fe5b041461047d5760405162461bcd60e51b81526004018080602001828103825260218152602001806116cc6021913960400191505060405180910390fd5b600061047d83836040518060400160405280601a81526020017f536166654d6174683a206469766973696f6e206279207a65726f000000000000815250610cf4565b604080518082018252601981527f7472616e7366657228616464726573732c75696e74323536290000000000000060209182015281516001600160a01b0385811660248301526044808301869052845180840390910181526064909201845291810180516001600160e01b031663a9059cbb60e01b1781529251815160009460609489169392918291908083835b602083106105ce5780518252601f1990920191602091820191016105af565b6001836020036101000a0380198251168184511680821785525050505050509050019150506000604051808303816000865af19150503d8060008114610630576040519150601f19603f3d011682016040523d82523d6000602084013e610635565b606091505b5091509150818015610663575080511580610663575080806020019051602081101561066057600080fd5b50515b6106b4576040805162461bcd60e51b815260206004820152601a60248201527f556e697377617056323a205452414e534645525f4641494c4544000000000000604482015290519081900360640190fd5b5050505050565b6000846001600160a01b0316630dfe16816040518163ffffffff1660e01b815260040160206040518083038186803b1580156106f657600080fd5b505afa15801561070a573d6000803e3d6000fd5b505050506040513d602081101561072057600080fd5b50516040805163d21220a760e01b815290519192506000916001600160a01b0388169163d21220a7916004808301926020929190829003018186803b15801561076857600080fd5b505afa15801561077c573d6000803e3d6000fd5b505050506040513d602081101561079257600080fd5b5051905061079f82610d59565b6107a881610d59565b6107b28286610d93565b6107bc8185610d93565b6000826001600160a01b03166370a08231306040518263ffffffff1660e01b815260040180826001600160a01b0316815260200191505060206040518083038186803b15801561080b57600080fd5b505afa15801561081f573d6000803e3d6000fd5b505050506040513d602081101561083557600080fd5b5051604080516370a0823160e01b815230600482015290519192506000916001600160a01b038516916370a08231916024808301926020929190829003018186803b15801561088357600080fd5b505afa158015610897573d6000803e3d6000fd5b505050506040513d60208110156108ad57600080fd5b5051905081158015906108c05750600081115b156109e65761095385856001600160a01b03166370a08231306040518263ffffffff1660e01b815260040180826001600160a01b0316815260200191505060206040518083038186803b15801561091657600080fd5b505afa15801561092a573d6000803e3d6000fd5b505050506040513d602081101561094057600080fd5b50516001600160a01b0387169190610e1f565b6109e185846001600160a01b03166370a08231306040518263ffffffff1660e01b815260040180826001600160a01b0316815260200191505060206040518083038186803b1580156109a457600080fd5b505afa1580156109b8573d6000803e3d6000fd5b505050506040513d60208110156109ce57600080fd5b50516001600160a01b0386169190610e1f565b610c4e565b6000821180156109f4575080155b15610a8657610a04848484610e76565b610a8683846001600160a01b03166370a08231306040518263ffffffff1660e01b815260040180826001600160a01b0316815260200191505060206040518083038186803b158015610a5557600080fd5b505afa158015610a69573d6000803e3d6000fd5b505050506040513d6020811015610a7f57600080fd5b5051610d93565b81158015610a945750600081115b15610af557610aa4838583610e76565b610af584856001600160a01b03166370a08231306040518263ffffffff1660e01b815260040180826001600160a01b0316815260200191505060206040518083038186803b158015610a5557600080fd5b600154604080516370a0823160e01b815230600482015290516000926001600160a01b0316916370a08231916024808301926020929190829003018186803b158015610b4057600080fd5b505afa158015610b54573d6000803e3d6000fd5b505050506040513d6020811015610b6a57600080fd5b50511115610c0e57600154610b87906001600160a01b0316610d59565b600154600054604080516370a0823160e01b81523060048201529051610c0e936001600160a01b0390811693169183916370a0823191602480820192602092909190829003018186803b158015610bdd57600080fd5b505afa158015610bf1573d6000803e3d6000fd5b505050506040513d6020811015610c0757600080fd5b5051610e76565b600054610c24906001600160a01b03168661115e565b600154610c3a906001600160a01b03168661115e565b610c44848661115e565b610c4e838661115e565b5050505050505050565b60008184841115610ce75760405162461bcd60e51b81526004018080602001828103825283818151815260200191508051906020019080838360005b83811015610cac578181015183820152602001610c94565b50505050905090810190601f168015610cd95780820380516001836020036101000a031916815260200191505b509250505060405180910390fd5b50508183035b9392505050565b60008183610d435760405162461bcd60e51b8152602060048201818152835160248401528351909283926044909101919085019080838360008315610cac578181015183820152602001610c94565b506000838581610d4f57fe5b0495945050505050565b600354610d74906001600160a01b038381169116600061126d565b600354610d90906001600160a01b03838116911660001961126d565b50565b6000546001600160a01b0383811691161415610dae57610e1b565b600054610dc59083906001600160a01b0316611380565b15610de757600054610de29083906001600160a01b031683610e76565b610e1b565b600154610dfe9083906001600160a01b0316611380565b15610e1b57600154610e1b9083906001600160a01b031683610e76565b5050565b604080516001600160a01b038416602482015260448082018490528251808303909101815260649091019091526020810180516001600160e01b031663a9059cbb60e01b179052610e71908490611415565b505050565b6001546001600160a01b038481169116148015610ea157506000546001600160a01b03838116911614155b15610eab57610e71565b6002546040805163e6a4390560e01b81526001600160a01b038681166004830152858116602483015291516000939092169163e6a4390591604480820192602092909190829003018186803b158015610f0357600080fd5b505afa158015610f17573d6000803e3d6000fd5b505050506040513d6020811015610f2d57600080fd5b50516001600160a01b031614801590610f465750600081115b15610e715760408051600280825260608083018452926020830190803683370190505090508381600081518110610f7957fe5b60200260200101906001600160a01b031690816001600160a01b0316815250508281600181518110610fa757fe5b60200260200101906001600160a01b031690816001600160a01b031681525050600360009054906101000a90046001600160a01b03166001600160a01b031663ba2bbad38360008430426103e8016040518663ffffffff1660e01b81526004018086815260200185815260200180602001846001600160a01b03168152602001838152602001828103825285818151815260200191508051906020019060200280838360005b8381101561106557818101518382015260200161104d565b505050509050019650505050505050600060405180830381600087803b15801561108e57600080fd5b505af11580156110a2573d6000803e3d6000fd5b505050506040513d6000823e601f3d908101601f1916820160405260208110156110cb57600080fd5b81019080805160405193929190846401000000008211156110eb57600080fd5b90830190602082018581111561110057600080fd5b825186602082028301116401000000008211171561111d57600080fd5b82525081516020918201928201910280838360005b8381101561114a578181015183820152602001611132565b505050509050016040525050505050505050565b6000826001600160a01b03166370a08231306040518263ffffffff1660e01b815260040180826001600160a01b0316815260200191505060206040518083038186803b1580156111ad57600080fd5b505afa1580156111c1573d6000803e3d6000fd5b505050506040513d60208110156111d757600080fd5b50511115610e1b57610e1b81836001600160a01b03166370a08231306040518263ffffffff1660e01b815260040180826001600160a01b0316815260200191505060206040518083038186803b15801561123057600080fd5b505afa158015611244573d6000803e3d6000fd5b505050506040513d602081101561125a57600080fd5b50516001600160a01b0385169190610e1f565b8015806112f3575060408051636eb1769f60e11b81523060048201526001600160a01b03848116602483015291519185169163dd62ed3e91604480820192602092909190829003018186803b1580156112c557600080fd5b505afa1580156112d9573d6000803e3d6000fd5b505050506040513d60208110156112ef57600080fd5b5051155b61132e5760405162461bcd60e51b81526004018080602001828103825260368152602001806117176036913960400191505060405180910390fd5b604080516001600160a01b038416602482015260448082018490528251808303909101815260649091019091526020810180516001600160e01b031663095ea7b360e01b179052610e71908490611415565b6002546040805163e6a4390560e01b81526001600160a01b038581166004830152848116602483015291516000938493169163e6a43905916044808301926020929190829003018186803b1580156113d757600080fd5b505afa1580156113eb573d6000803e3d6000fd5b505050506040513d602081101561140157600080fd5b50516001600160a01b031614159392505050565b606061146a826040518060400160405280602081526020017f5361666545524332303a206c6f772d6c6576656c2063616c6c206661696c6564815250856001600160a01b03166114c69092919063ffffffff16565b805190915015610e715780806020019051602081101561148957600080fd5b5051610e715760405162461bcd60e51b815260040180806020018281038252602a8152602001806116ed602a913960400191505060405180910390fd5b60606114d584846000856114dd565b949350505050565b60608247101561151e5760405162461bcd60e51b81526004018080602001828103825260268152602001806116a66026913960400191505060405180910390fd5b61152785611639565b611578576040805162461bcd60e51b815260206004820152601d60248201527f416464726573733a2063616c6c20746f206e6f6e2d636f6e7472616374000000604482015290519081900360640190fd5b60006060866001600160a01b031685876040518082805190602001908083835b602083106115b75780518252601f199092019160209182019101611598565b6001836020036101000a03801982511681845116808217855250505050505090500191505060006040518083038185875af1925050503d8060008114611619576040519150601f19603f3d011682016040523d82523d6000602084013e61161e565b606091505b509150915061162e82828661163f565b979650505050505050565b3b151590565b6060831561164e575081610ced565b82511561165e5782518084602001fd5b60405162461bcd60e51b8152602060048201818152845160248401528451859391928392604401919085019080838360008315610cac578181015183820152602001610c9456fe416464726573733a20696e73756666696369656e742062616c616e636520666f722063616c6c536166654d6174683a206d756c7469706c69636174696f6e206f766572666c6f775361666545524332303a204552433230206f7065726174696f6e20646964206e6f7420737563636565645361666545524332303a20617070726f76652066726f6d206e6f6e2d7a65726f20746f206e6f6e2d7a65726f20616c6c6f77616e6365a26469706673582212203dcba840a63c5b26b459990cf2f84a78ce01043393c615244e0c80e76f495f0c64736f6c634300060c0033",
  "immutableReferences": {},
  "source": "// SPDX-License-Identifier: MIT\npragma solidity 0.6.12;\n\nimport \"@openzeppelin/contracts/token/ERC20/IERC20.sol\";\nimport \"@openzeppelin/contracts/token/ERC20/SafeERC20.sol\";\nimport \"./uniswapv2/interfaces/IUniswapV2Pair.sol\";\nimport \"./uniswapv2/interfaces/IUniswapV2Factory.sol\";\nimport \"./interfaces/ISoneSwapRouter.sol\";\n\ncontract SoneConvert {\n    using SafeMath for uint256;\n    using SafeERC20 for IERC20;\n\n    address public sone;\n    address public weth;\n    IUniswapV2Factory public factory;\n    ISoneSwapRouter public soneSwapRouter;\n    bytes4 private constant SELECTOR = bytes4(keccak256(bytes(\"transfer(address,uint256)\")));\n\n    constructor(\n        address _sone,\n        address _weth,\n        IUniswapV2Factory _factory,\n        ISoneSwapRouter _soneSwapRouter\n    ) public {\n        sone = _sone;\n        weth = _weth;\n        factory = _factory;\n        soneSwapRouter = _soneSwapRouter;\n    }\n\n    function convertToSone(\n        address token0,\n        address token1,\n        uint256 liquidity,\n        uint256 totalSupply,\n        address to\n    ) external {\n        // get pair\n        IUniswapV2Pair pair = IUniswapV2Pair(factory.getPair(token0, token1));\n        require(pair != IUniswapV2Pair(address(0)), \"PAIR NOT FOUND\");\n        uint256 lp = pair.balanceOf(address(this));\n        uint256 liquidityOfProvider = totalSupply.sub(lp).sub(pair.balanceOf(address(factory.feeTo())));\n        uint256 lpToUser = liquidity.mul(lp).div(liquidityOfProvider);\n        if (lpToUser > 0) {\n            _safeTransfer(address(pair), address(pair), lpToUser);\n            // pair.transferFrom(address(this), address(pair), lpToUser);\n            (uint256 amount0, uint256 amount1) = pair.burn(address(this));\n            convert(pair, amount0, amount1, to);\n        }\n    }\n\n    function convert(\n        IUniswapV2Pair pair,\n        uint256 amount0,\n        uint256 amount1,\n        address to\n    ) internal {\n        address token0 = pair.token0();\n        address token1 = pair.token1();\n\n        _safeApproveForsoneSwapRouter(token0);\n        _safeApproveForsoneSwapRouter(token1);\n\n        // swap token to sone/weth\n        _toBaseToken(token0, amount0);\n        _toBaseToken(token1, amount1);\n\n        uint256 balance0 = IERC20(token0).balanceOf(address(this));\n        uint256 balance1 = IERC20(token1).balanceOf(address(this));\n        // send token if both 2 token can not convert to sone\n        if (balance0 > 0 && balance1 > 0) {\n            IERC20(token0).safeTransfer(to, IERC20(token0).balanceOf(address(this)));\n            IERC20(token1).safeTransfer(to, IERC20(token1).balanceOf(address(this)));\n        } else {\n            if (balance0 > 0 && balance1 == 0) {\n                _swap(token0, token1, balance0);\n                _toBaseToken(token1, IERC20(token1).balanceOf(address(this)));\n            }\n            if (balance0 == 0 && balance1 > 0) {\n                _swap(token1, token0, balance1);\n                _toBaseToken(token0, IERC20(token0).balanceOf(address(this)));\n            }\n            // swap weth to sone\n            if (IERC20(weth).balanceOf(address(this)) > 0) {\n                _safeApproveForsoneSwapRouter(weth);\n                _swap(weth, sone, IERC20(weth).balanceOf(address(this)));\n            }\n\n            // send token to user\n            _transferTokenRemain(sone, to);\n            _transferTokenRemain(weth, to);\n            _transferTokenRemain(token0, to);\n            _transferTokenRemain(token1, to);\n        }\n    }\n\n    function _toBaseToken(address token, uint256 amountIn) internal {\n        if (token == sone) return;\n\n        if (_canSwap(token, sone)) {\n            _swap(token, sone, amountIn);\n        } else if (_canSwap(token, weth)) {\n            _swap(token, weth, amountIn);\n        }\n    }\n\n    function _canSwap(address token0, address token1)\n        internal\n        view\n        returns (bool)\n    {\n        return factory.getPair(token0, token1) != address(0);\n    }\n\n    function _swap(\n        address token0,\n        address token1,\n        uint256 amountIn\n    ) internal {\n        if(token0 == weth && token1 != sone) return;\n        if (factory.getPair(token0, token1) != address(0) && amountIn > 0) {\n            address[] memory path = new address[](2);\n            path[0] = token0;\n            path[1] = token1;\n            soneSwapRouter.swapExactTokensForTokensNoFee(\n                amountIn,\n                0,\n                path,\n                address(this),\n                block.timestamp + 1000\n            );\n        }\n    }\n\n    function _safeApproveForsoneSwapRouter(address token) internal {\n        IERC20(token).safeApprove(address(soneSwapRouter), 0);\n        IERC20(token).safeApprove(address(soneSwapRouter), uint256(-1));\n    }\n\n    function _safeTransfer(address token, address to, uint value) internal {\n        (bool success, bytes memory data) = token.call(abi.encodeWithSelector(SELECTOR, to, value));\n        require(success && (data.length == 0 || abi.decode(data, (bool))), 'UniswapV2: TRANSFER_FAILED');\n    }\n\n    function _transferTokenRemain(address token, address to) internal {\n        if (IERC20(token).balanceOf(address(this)) > 0) {\n            IERC20(token).safeTransfer(to,IERC20(token).balanceOf(address(this)));\n        }\n    }\n\n}\n",
  "sourcePath": "/Users/danielpham/Documentation/01_VNext/02_2021/03_S-ONE_Finance/02_Source/sone-smart-contract/contracts/SoneConvert.sol",
  "compiler": {
    "name": "solc",
    "version": "0.6.12+commit.27d51765.Emscripten.clang"
  },
  "schemaVersion": "3.4.1",
  "updatedAt": "2021-06-16T02:58:22.946Z",
  "devdoc": {
    "kind": "dev",
    "methods": {},
    "version": 1
  },
  "userdoc": {
    "kind": "user",
    "methods": {},
    "version": 1
  }
}