{
  "contractName": "SoneMasterFarmer",
  "abi": [
    {
      "inputs": [
        {
          "internalType": "contract ISoneToken",
          "name": "_sone",
          "type": "address"
        },
        {
          "internalType": "address",
          "name": "_devaddr",
          "type": "address"
        },
        {
          "internalType": "uint256",
          "name": "_rewardPerBlock",
          "type": "uint256"
        },
        {
          "internalType": "uint256",
          "name": "_startBlock",
          "type": "uint256"
        },
        {
          "internalType": "uint256",
          "name": "_halvingAfterBlock",
          "type": "uint256"
        }
      ],
      "stateMutability": "nonpayable",
      "type": "constructor"
    },
    {
      "anonymous": false,
      "inputs": [
        {
          "indexed": true,
          "internalType": "address",
          "name": "user",
          "type": "address"
        },
        {
          "indexed": true,
          "internalType": "uint256",
          "name": "pid",
          "type": "uint256"
        },
        {
          "indexed": false,
          "internalType": "uint256",
          "name": "amount",
          "type": "uint256"
        }
      ],
      "name": "Deposit",
      "type": "event"
    },
    {
      "anonymous": false,
      "inputs": [
        {
          "indexed": true,
          "internalType": "address",
          "name": "user",
          "type": "address"
        },
        {
          "indexed": true,
          "internalType": "uint256",
          "name": "pid",
          "type": "uint256"
        },
        {
          "indexed": false,
          "internalType": "uint256",
          "name": "amount",
          "type": "uint256"
        }
      ],
      "name": "EmergencyWithdraw",
      "type": "event"
    },
    {
      "anonymous": false,
      "inputs": [
        {
          "indexed": true,
          "internalType": "address",
          "name": "previousOwner",
          "type": "address"
        },
        {
          "indexed": true,
          "internalType": "address",
          "name": "newOwner",
          "type": "address"
        }
      ],
      "name": "OwnershipTransferred",
      "type": "event"
    },
    {
      "anonymous": false,
      "inputs": [
        {
          "indexed": true,
          "internalType": "address",
          "name": "user",
          "type": "address"
        },
        {
          "indexed": true,
          "internalType": "uint256",
          "name": "pid",
          "type": "uint256"
        },
        {
          "indexed": false,
          "internalType": "uint256",
          "name": "amount",
          "type": "uint256"
        },
        {
          "indexed": false,
          "internalType": "uint256",
          "name": "lockAmount",
          "type": "uint256"
        }
      ],
      "name": "SendSoneReward",
      "type": "event"
    },
    {
      "anonymous": false,
      "inputs": [
        {
          "indexed": true,
          "internalType": "address",
          "name": "user",
          "type": "address"
        },
        {
          "indexed": true,
          "internalType": "uint256",
          "name": "pid",
          "type": "uint256"
        },
        {
          "indexed": false,
          "internalType": "uint256",
          "name": "amount",
          "type": "uint256"
        }
      ],
      "name": "Withdraw",
      "type": "event"
    },
    {
      "inputs": [],
      "name": "FINISH_BONUS_AT_BLOCK",
      "outputs": [
        {
          "internalType": "uint256",
          "name": "",
          "type": "uint256"
        }
      ],
      "stateMutability": "view",
      "type": "function"
    },
    {
      "inputs": [
        {
          "internalType": "uint256",
          "name": "",
          "type": "uint256"
        }
      ],
      "name": "HALVING_AT_BLOCK",
      "outputs": [
        {
          "internalType": "uint256",
          "name": "",
          "type": "uint256"
        }
      ],
      "stateMutability": "view",
      "type": "function"
    },
    {
      "inputs": [],
      "name": "PERCENT_FOR_DEV",
      "outputs": [
        {
          "internalType": "uint256",
          "name": "",
          "type": "uint256"
        }
      ],
      "stateMutability": "view",
      "type": "function"
    },
    {
      "inputs": [],
      "name": "PERCENT_LOCK_BONUS_REWARD",
      "outputs": [
        {
          "internalType": "uint256",
          "name": "",
          "type": "uint256"
        }
      ],
      "stateMutability": "view",
      "type": "function"
    },
    {
      "inputs": [
        {
          "internalType": "uint256",
          "name": "",
          "type": "uint256"
        }
      ],
      "name": "REWARD_MULTIPLIER",
      "outputs": [
        {
          "internalType": "uint256",
          "name": "",
          "type": "uint256"
        }
      ],
      "stateMutability": "view",
      "type": "function"
    },
    {
      "inputs": [],
      "name": "REWARD_PER_BLOCK",
      "outputs": [
        {
          "internalType": "uint256",
          "name": "",
          "type": "uint256"
        }
      ],
      "stateMutability": "view",
      "type": "function"
    },
    {
      "inputs": [],
      "name": "START_BLOCK",
      "outputs": [
        {
          "internalType": "uint256",
          "name": "",
          "type": "uint256"
        }
      ],
      "stateMutability": "view",
      "type": "function"
    },
    {
      "inputs": [],
      "name": "devaddr",
      "outputs": [
        {
          "internalType": "address",
          "name": "",
          "type": "address"
        }
      ],
      "stateMutability": "view",
      "type": "function"
    },
    {
      "inputs": [],
      "name": "migrator",
      "outputs": [
        {
          "internalType": "contract IMigratorToSoneSwap",
          "name": "",
          "type": "address"
        }
      ],
      "stateMutability": "view",
      "type": "function"
    },
    {
      "inputs": [],
      "name": "owner",
      "outputs": [
        {
          "internalType": "address",
          "name": "",
          "type": "address"
        }
      ],
      "stateMutability": "view",
      "type": "function"
    },
    {
      "inputs": [
        {
          "internalType": "address",
          "name": "",
          "type": "address"
        }
      ],
      "name": "poolId1",
      "outputs": [
        {
          "internalType": "uint256",
          "name": "",
          "type": "uint256"
        }
      ],
      "stateMutability": "view",
      "type": "function"
    },
    {
      "inputs": [
        {
          "internalType": "uint256",
          "name": "",
          "type": "uint256"
        }
      ],
      "name": "poolInfo",
      "outputs": [
        {
          "internalType": "contract IERC20",
          "name": "lpToken",
          "type": "address"
        },
        {
          "internalType": "uint256",
          "name": "allocPoint",
          "type": "uint256"
        },
        {
          "internalType": "uint256",
          "name": "lastRewardBlock",
          "type": "uint256"
        },
        {
          "internalType": "uint256",
          "name": "accSonePerShare",
          "type": "uint256"
        }
      ],
      "stateMutability": "view",
      "type": "function"
    },
    {
      "inputs": [],
      "name": "renounceOwnership",
      "outputs": [],
      "stateMutability": "nonpayable",
      "type": "function"
    },
    {
      "inputs": [],
      "name": "sone",
      "outputs": [
        {
          "internalType": "contract ISoneToken",
          "name": "",
          "type": "address"
        }
      ],
      "stateMutability": "view",
      "type": "function"
    },
    {
      "inputs": [],
      "name": "totalAllocPoint",
      "outputs": [
        {
          "internalType": "uint256",
          "name": "",
          "type": "uint256"
        }
      ],
      "stateMutability": "view",
      "type": "function"
    },
    {
      "inputs": [
        {
          "internalType": "address",
          "name": "newOwner",
          "type": "address"
        }
      ],
      "name": "transferOwnership",
      "outputs": [],
      "stateMutability": "nonpayable",
      "type": "function"
    },
    {
      "inputs": [
        {
          "internalType": "uint256",
          "name": "",
          "type": "uint256"
        },
        {
          "internalType": "address",
          "name": "",
          "type": "address"
        }
      ],
      "name": "userInfo",
      "outputs": [
        {
          "internalType": "uint256",
          "name": "amount",
          "type": "uint256"
        },
        {
          "internalType": "uint256",
          "name": "rewardDebt",
          "type": "uint256"
        },
        {
          "internalType": "uint256",
          "name": "rewardDebtAtBlock",
          "type": "uint256"
        }
      ],
      "stateMutability": "view",
      "type": "function"
    },
    {
      "inputs": [],
      "name": "poolLength",
      "outputs": [
        {
          "internalType": "uint256",
          "name": "",
          "type": "uint256"
        }
      ],
      "stateMutability": "view",
      "type": "function"
    },
    {
      "inputs": [
        {
          "internalType": "uint256",
          "name": "_allocPoint",
          "type": "uint256"
        },
        {
          "internalType": "contract IERC20",
          "name": "_lpToken",
          "type": "address"
        },
        {
          "internalType": "bool",
          "name": "_withUpdate",
          "type": "bool"
        }
      ],
      "name": "add",
      "outputs": [],
      "stateMutability": "nonpayable",
      "type": "function"
    },
    {
      "inputs": [
        {
          "internalType": "uint256",
          "name": "_pid",
          "type": "uint256"
        },
        {
          "internalType": "uint256",
          "name": "_allocPoint",
          "type": "uint256"
        },
        {
          "internalType": "bool",
          "name": "_withUpdate",
          "type": "bool"
        }
      ],
      "name": "set",
      "outputs": [],
      "stateMutability": "nonpayable",
      "type": "function"
    },
    {
      "inputs": [
        {
          "internalType": "contract IMigratorToSoneSwap",
          "name": "_migrator",
          "type": "address"
        }
      ],
      "name": "setMigrator",
      "outputs": [],
      "stateMutability": "nonpayable",
      "type": "function"
    },
    {
      "inputs": [
        {
          "internalType": "uint256",
          "name": "_pid",
          "type": "uint256"
        }
      ],
      "name": "migrate",
      "outputs": [],
      "stateMutability": "nonpayable",
      "type": "function"
    },
    {
      "inputs": [],
      "name": "massUpdatePools",
      "outputs": [],
      "stateMutability": "nonpayable",
      "type": "function"
    },
    {
      "inputs": [
        {
          "internalType": "uint256",
          "name": "_pid",
          "type": "uint256"
        }
      ],
      "name": "updatePool",
      "outputs": [],
      "stateMutability": "nonpayable",
      "type": "function"
    },
    {
      "inputs": [
        {
          "internalType": "uint256",
          "name": "_from",
          "type": "uint256"
        },
        {
          "internalType": "uint256",
          "name": "_to",
          "type": "uint256"
        }
      ],
      "name": "getMultiplier",
      "outputs": [
        {
          "internalType": "uint256",
          "name": "",
          "type": "uint256"
        }
      ],
      "stateMutability": "view",
      "type": "function"
    },
    {
      "inputs": [
        {
          "internalType": "uint256",
          "name": "_from",
          "type": "uint256"
        },
        {
          "internalType": "uint256",
          "name": "_to",
          "type": "uint256"
        },
        {
          "internalType": "uint256",
          "name": "_allocPoint",
          "type": "uint256"
        }
      ],
      "name": "getPoolReward",
      "outputs": [
        {
          "internalType": "uint256",
          "name": "forDev",
          "type": "uint256"
        },
        {
          "internalType": "uint256",
          "name": "forFarmer",
          "type": "uint256"
        }
      ],
      "stateMutability": "view",
      "type": "function"
    },
    {
      "inputs": [
        {
          "internalType": "uint256",
          "name": "_pid",
          "type": "uint256"
        },
        {
          "internalType": "address",
          "name": "_user",
          "type": "address"
        }
      ],
      "name": "pendingReward",
      "outputs": [
        {
          "internalType": "uint256",
          "name": "",
          "type": "uint256"
        }
      ],
      "stateMutability": "view",
      "type": "function"
    },
    {
      "inputs": [
        {
          "internalType": "uint256",
          "name": "_pid",
          "type": "uint256"
        }
      ],
      "name": "claimReward",
      "outputs": [],
      "stateMutability": "nonpayable",
      "type": "function"
    },
    {
      "inputs": [
        {
          "internalType": "uint256",
          "name": "_pid",
          "type": "uint256"
        },
        {
          "internalType": "uint256",
          "name": "_amount",
          "type": "uint256"
        }
      ],
      "name": "deposit",
      "outputs": [],
      "stateMutability": "nonpayable",
      "type": "function"
    },
    {
      "inputs": [
        {
          "internalType": "uint256",
          "name": "_pid",
          "type": "uint256"
        },
        {
          "internalType": "uint256",
          "name": "_amount",
          "type": "uint256"
        }
      ],
      "name": "withdraw",
      "outputs": [],
      "stateMutability": "nonpayable",
      "type": "function"
    },
    {
      "inputs": [
        {
          "internalType": "uint256",
          "name": "_pid",
          "type": "uint256"
        }
      ],
      "name": "emergencyWithdraw",
      "outputs": [],
      "stateMutability": "nonpayable",
      "type": "function"
    },
    {
      "inputs": [
        {
          "internalType": "address",
          "name": "_devaddr",
          "type": "address"
        }
      ],
      "name": "dev",
      "outputs": [],
      "stateMutability": "nonpayable",
      "type": "function"
    },
    {
      "inputs": [
        {
          "internalType": "uint256",
          "name": "pid1",
          "type": "uint256"
        }
      ],
      "name": "getNewRewardPerBlock",
      "outputs": [
        {
          "internalType": "uint256",
          "name": "",
          "type": "uint256"
        }
      ],
      "stateMutability": "view",
      "type": "function"
    },
    {
      "inputs": [
        {
          "internalType": "address",
          "name": "account",
          "type": "address"
        },
        {
          "internalType": "uint256",
          "name": "amount",
          "type": "uint256"
        }
      ],
      "name": "mintSoneToken",
      "outputs": [],
      "stateMutability": "nonpayable",
      "type": "function"
    },
    {
      "inputs": [
        {
          "internalType": "address",
          "name": "newOwner",
          "type": "address"
        }
      ],
      "name": "transferOwnershipSoneToken",
      "outputs": [],
      "stateMutability": "nonpayable",
      "type": "function"
    }
  ],
  "bytecode": "0x6101a06040526020608081815260a082905260c082905260e091909152601061010052600861012052600461014081905260026101605260016101805262000049916009620002d1565b506000600c553480156200005c57600080fd5b506040516200283e3803806200283e833981810160405260a08110156200008257600080fd5b508051602082015160408301516060840151608090940151929391929091906000620000ad6200020b565b600080546001600160a01b0319166001600160a01b0383169081178255604051929350917f8be0079c531659141344cd1fd0a4f28419497f9722a3daafe3b4186f6b6457e0908290a350600180546001600160a01b038088166001600160a01b03199283161790925560028054928716929091169190911790556003839055600782905560005b60045460001901811015620001ad5760006200017b846200016784600101866200020f60201b62001a021790919060201c565b6200027660201b62001a621790919060201c565b6005805460018181018355600092909252600080516020620027fd833981519152019190915591909101905062000134565b50620001d58262000167600160048054905003846200020f60201b62001a021790919060201c565b600655505060058054600181018255600091909152600019600080516020620027fd83398151915290910155506200033d915050565b3390565b600082620002205750600062000270565b828202828482816200022e57fe5b04146200026d5760405162461bcd60e51b81526004018080602001828103825260218152602001806200281d6021913960400191505060405180910390fd5b90505b92915050565b6000828201838110156200026d576040805162461bcd60e51b815260206004820152601b60248201527f536166654d6174683a206164646974696f6e206f766572666c6f770000000000604482015290519081900360640190fd5b82805482825590600052602060002090810192821562000314579160200282015b8281111562000314578251829060ff16905591602001919060010190620002f2565b506200032292915062000326565b5090565b5b8082111562000322576000815560010162000327565b6124b0806200034d6000396000f3fe608060405234801561001057600080fd5b50600436106102115760003560e01c80637e13cf4f11610125578063ae169a50116100ad578063d49e77cd1161007c578063d49e77cd146105ab578063e2bbb158146105b3578063ed9bdeda146105d6578063f2fde38b146105de578063fcc123401461060457610211565b8063ae169a501461051e578063bc7de55b1461053b578063c8ed768014610543578063ce2529c91461058557610211565b806393f1a40b116100f457806393f1a40b1461049057806395fdf258146104da578063975532dc146104e2578063980c2a98146104ea57806398969e82146104f257610211565b80637e13cf4f146104195780638d88a90e1461043f5780638da5cb5b146104655780638dbb1e3a1461046d57610211565b80634179b4fb116101a85780635312ea8e116101775780635312ea8e1461039d578063630b5ba1146103ba57806364482f79146103c2578063715018a6146103ed5780637cd07e47146103f557610211565b80634179b4fb14610323578063441a3e7014610340578063454b06081461036357806351eb05a61461038057610211565b80631eaaa045116101e45780631eaaa045146102a257806323cf3118146102d85780632fda7735146102fe57806339b3e8261461031b57610211565b8063081e3eda146102165780631526fe271461023057806317caf6f11461027d5780631d465c8214610285575b600080fd5b61021e610630565b60408051918252519081900360200190f35b61024d6004803603602081101561024657600080fd5b5035610636565b604080516001600160a01b0390951685526020850193909352838301919091526060830152519081900360800190f35b61021e610677565b61021e6004803603602081101561029b57600080fd5b503561067d565b6102d6600480360360608110156102b857600080fd5b508035906001600160a01b03602082013516906040013515156106fb565b005b6102d6600480360360208110156102ee57600080fd5b50356001600160a01b03166108df565b61021e6004803603602081101561031457600080fd5b5035610959565b61021e610977565b61021e6004803603602081101561033957600080fd5b503561097d565b6102d66004803603604081101561035657600080fd5b508035906020013561098a565b6102d66004803603602081101561037957600080fd5b5035610a9a565b6102d66004803603602081101561039657600080fd5b5035610cf6565b6102d6600480360360208110156103b357600080fd5b5035610f7d565b6102d6611018565b6102d6600480360360608110156103d857600080fd5b5080359060208101359060400135151561103b565b6102d661110c565b6103fd6111ae565b604080516001600160a01b039092168252519081900360200190f35b6102d66004803603602081101561042f57600080fd5b50356001600160a01b03166111bd565b6102d66004803603602081101561045557600080fd5b50356001600160a01b031661127e565b6103fd6112eb565b61021e6004803603604081101561048357600080fd5b50803590602001356112fa565b6104bc600480360360408110156104a657600080fd5b50803590602001356001600160a01b03166113da565b60408051938452602084019290925282820152519081900360600190f35b61021e611406565b61021e61140b565b61021e611411565b61021e6004803603604081101561050857600080fd5b50803590602001356001600160a01b0316611417565b6102d66004803603602081101561053457600080fd5b503561155f565b6103fd611571565b61056c6004803603606081101561055957600080fd5b5080359060208101359060400135611580565b6040805192835260208301919091528051918290030190f35b61021e6004803603602081101561059b57600080fd5b50356001600160a01b0316611704565b6103fd611716565b6102d6600480360360408110156105c957600080fd5b5080359060200135611725565b61021e61183c565b6102d6600480360360208110156105f457600080fd5b50356001600160a01b0316611841565b6102d66004803603604081101561061a57600080fd5b506001600160a01b038135169060200135611939565b60095490565b6009818154811061064357fe5b600091825260209091206004909102018054600182015460028301546003909301546001600160a01b039092169350919084565b600c5481565b60008061068d60014303436112fa565b9050826106aa576003546106a2908290611a02565b9150506106f6565b6106a2600c546106f0600960018703815481106106c357fe5b9060005260206000209060040201600101546106ea60035486611a0290919063ffffffff16565b90611a02565b90611abc565b919050565b610703611afe565b6000546001600160a01b03908116911614610753576040805162461bcd60e51b815260206004820181905260248201526000805160206123cf833981519152604482015290519081900360640190fd5b6001600160a01b0382166000908152600a6020526040902054156107a85760405162461bcd60e51b815260040180806020018281038252602c81526020018061244f602c913960400191505060405180910390fd5b80156107b6576107b6611018565b600060075443116107c9576007546107cb565b435b600c549091506107db9085611a62565b600c55600980546001600160a01b039485166000818152600a6020908152604080832060019586019055805160808101825293845290830198895282019485526060820181815284549384018555939052517f6e1540171b6c0c960b71a7020d9f60077f6af931a8bbf590da0223dacf75c7af600490920291820180546001600160a01b031916919096161790945593517f6e1540171b6c0c960b71a7020d9f60077f6af931a8bbf590da0223dacf75c7b0840155517f6e1540171b6c0c960b71a7020d9f60077f6af931a8bbf590da0223dacf75c7b18301555090517f6e1540171b6c0c960b71a7020d9f60077f6af931a8bbf590da0223dacf75c7b290910155565b6108e7611afe565b6000546001600160a01b03908116911614610937576040805162461bcd60e51b815260206004820181905260248201526000805160206123cf833981519152604482015290519081900360640190fd5b600880546001600160a01b0319166001600160a01b0392909216919091179055565b6004818154811061096657fe5b600091825260209091200154905081565b60075481565b6005818154811061096657fe5b60006009838154811061099957fe5b60009182526020808320868452600b825260408085203386529092529220805460049092029092019250831115610a015760405162461bcd60e51b81526004018080602001828103825260248152602001806123646024913960400191505060405180910390fd5b610a0a84610cf6565b610a1384611b02565b8215610a3d578054610a259084611d7d565b81558154610a3d906001600160a01b03163385611dbf565b60038201548154610a589164e8d4a51000916106f091611a02565b6001820155604080518481529051859133917ff279e6a1f5e320cca91135676d9cb6e44ca8a08c0b88342bcdb1144f6511b5689181900360200190a350505050565b6008546001600160a01b0316610aee576040805162461bcd60e51b815260206004820152601460248201527336b4b3b930ba329d1037379036b4b3b930ba37b960611b604482015290519081900360640190fd5b600060098281548110610afd57fe5b600091825260208083206004928302018054604080516370a0823160e01b81523095810195909552519195506001600160a01b0316939284926370a0823192602480840193829003018186803b158015610b5657600080fd5b505afa158015610b6a573d6000803e3d6000fd5b505050506040513d6020811015610b8057600080fd5b5051600854909150610b9f906001600160a01b03848116911683611e11565b6008546040805163ce5494bb60e01b81526001600160a01b0385811660048301529151600093929092169163ce5494bb9160248082019260209290919082900301818787803b158015610bf157600080fd5b505af1158015610c05573d6000803e3d6000fd5b505050506040513d6020811015610c1b57600080fd5b5051604080516370a0823160e01b815230600482015290519192506001600160a01b038316916370a0823191602480820192602092909190829003018186803b158015610c6757600080fd5b505afa158015610c7b573d6000803e3d6000fd5b505050506040513d6020811015610c9157600080fd5b50518214610cd5576040805162461bcd60e51b815260206004820152600c60248201526b1b5a59dc985d194e8818985960a21b604482015290519081900360640190fd5b83546001600160a01b0319166001600160a01b039190911617909255505050565b600060098281548110610d0557fe5b9060005260206000209060040201905080600201544311610d265750610f7a565b8054604080516370a0823160e01b815230600482015290516000926001600160a01b0316916370a08231916024808301926020929190829003018186803b158015610d7057600080fd5b505afa158015610d84573d6000803e3d6000fd5b505050506040513d6020811015610d9a57600080fd5b5051905080610db0575043600290910155610f7a565b600080610dc68460020154438660010154611580565b90925090508115610ed257600154600254604080516340c10f1960e01b81526001600160a01b03928316600482015260248101869052905191909216916340c10f1991604480830192600092919082900301818387803b158015610e2957600080fd5b505af1158015610e3d573d6000803e3d6000fd5b505050506006544311610ed2576001546002546001600160a01b039182169163282d3fdf9116610e7360646106f087604b611a02565b6040518363ffffffff1660e01b815260040180836001600160a01b0316815260200182815260200192505050600060405180830381600087803b158015610eb957600080fd5b505af1158015610ecd573d6000803e3d6000fd5b505050505b600154604080516340c10f1960e01b81523060048201526024810184905290516001600160a01b03909216916340c10f199160448082019260009290919082900301818387803b158015610f2557600080fd5b505af1158015610f39573d6000803e3d6000fd5b50505050610f67610f5c846106f064e8d4a5100085611a0290919063ffffffff16565b600386015490611a62565b6003850155505043600290920191909155505b50565b600060098281548110610f8c57fe5b60009182526020808320858452600b82526040808520338087529352909320805460049093029093018054909450610fd1926001600160a01b03919091169190611dbf565b80546040805191825251849133917fbb757047c2b5f3974fe26b7c10f732e7bce710b0952a71082702781e62ae05959181900360200190a360008082556001909101555050565b60095460005b818110156110375761102f81610cf6565b60010161101e565b5050565b611043611afe565b6000546001600160a01b03908116911614611093576040805162461bcd60e51b815260206004820181905260248201526000805160206123cf833981519152604482015290519081900360640190fd5b80156110a1576110a1611018565b6110de826110d8600986815481106110b557fe5b906000526020600020906004020160010154600c54611d7d90919063ffffffff16565b90611a62565b600c8190555081600984815481106110f257fe5b906000526020600020906004020160010181905550505050565b611114611afe565b6000546001600160a01b03908116911614611164576040805162461bcd60e51b815260206004820181905260248201526000805160206123cf833981519152604482015290519081900360640190fd5b600080546040516001600160a01b03909116907f8be0079c531659141344cd1fd0a4f28419497f9722a3daafe3b4186f6b6457e0908390a3600080546001600160a01b0319169055565b6008546001600160a01b031681565b6111c5611afe565b6000546001600160a01b03908116911614611215576040805162461bcd60e51b815260206004820181905260248201526000805160206123cf833981519152604482015290519081900360640190fd5b6001546040805163f2fde38b60e01b81526001600160a01b0384811660048301529151919092169163f2fde38b91602480830192600092919082900301818387803b15801561126357600080fd5b505af1158015611277573d6000803e3d6000fd5b5050505050565b6002546001600160a01b031633146112c9576040805162461bcd60e51b81526020600482015260096024820152686465763a207775743f60b81b604482015290519081900360640190fd5b600280546001600160a01b0319166001600160a01b0392909216919091179055565b6000546001600160a01b031690565b60075460009081908410156113135760009150506113d4565b60005b6005548110156113d05760006005828154811061132f57fe5b9060005260206000200154905080851161138257600061136b6004848154811061135557fe5b6000918252602090912001546106ea888a611d7d565b90506113778482611a62565b9450505050506113d4565b808610156113c75760006113b26004848154811061139c57fe5b6000918252602090912001546106ea848a611d7d565b919650869190506113c38482611a62565b9350505b50600101611316565b5090505b92915050565b600b60209081526000928352604080842090915290825290208054600182015460029092015490919083565b604b81565b60035481565b60065481565b6000806009848154811061142757fe5b60009182526020808320878452600b825260408085206001600160a01b03898116875290845281862060049586029093016003810154815484516370a0823160e01b81523098810198909852935191985093969395939492909116926370a08231926024808301939192829003018186803b1580156114a557600080fd5b505afa1580156114b9573d6000803e3d6000fd5b505050506040513d60208110156114cf57600080fd5b50516002850154909150431180156114e75750600081115b156115265760006115018560020154438760010154611580565b9150611522905061151b836106f08464e8d4a51000611a02565b8490611a62565b9250505b611554836001015461154e64e8d4a510006106f0868860000154611a0290919063ffffffff16565b90611d7d565b979650505050505050565b61156881610cf6565b610f7a81611b02565b6001546001600160a01b031681565b600080600061158f86866112fa565b905060006115b2600c546106f0876106ea60035487611a0290919063ffffffff16565b905060006116aa600160009054906101000a90046001600160a01b03166001600160a01b03166318160ddd6040518163ffffffff1660e01b815260040160206040518083038186803b15801561160757600080fd5b505afa15801561161b573d6000803e3d6000fd5b505050506040513d602081101561163157600080fd5b505160015460408051631aa93a7560e11b815290516001600160a01b039092169163355274ea91600480820192602092909190829003018186803b15801561167857600080fd5b505afa15801561168c573d6000803e3d6000fd5b505050506040513d60208110156116a257600080fd5b505190611d7d565b9050818110156116c057600094508093506116f9565b6116d060646106f084606e611a02565b8110156116e357600094508193506116f9565b6116f360646106f084600a611a02565b94508193505b505050935093915050565b600a6020526000908152604090205481565b6002546001600160a01b031681565b600081116117645760405162461bcd60e51b81526004018080602001828103825260388152602001806123066038913960400191505060405180910390fd5b60006009838154811061177357fe5b60009182526020808320868452600b825260408085203386529092529220600490910290910191506117a484610cf6565b6117ad84611b02565b81546117c4906001600160a01b0316333086611f24565b80546117d1574360028201555b80546117dd9084611a62565b80825560038301546117fa9164e8d4a51000916106f09190611a02565b6001820155604080518481529051859133917f90890809c654f11d6e72a28fa60149770a0d11ec6c92319d6ceb2bb0a4ea1a159181900360200190a350505050565b600a81565b611849611afe565b6000546001600160a01b03908116911614611899576040805162461bcd60e51b815260206004820181905260248201526000805160206123cf833981519152604482015290519081900360640190fd5b6001600160a01b0381166118de5760405162461bcd60e51b815260040180806020018281038252602681526020018061233e6026913960400191505060405180910390fd5b600080546040516001600160a01b03808516939216917f8be0079c531659141344cd1fd0a4f28419497f9722a3daafe3b4186f6b6457e091a3600080546001600160a01b0319166001600160a01b0392909216919091179055565b611941611afe565b6000546001600160a01b03908116911614611991576040805162461bcd60e51b815260206004820181905260248201526000805160206123cf833981519152604482015290519081900360640190fd5b600154604080516340c10f1960e01b81526001600160a01b03858116600483015260248201859052915191909216916340c10f1991604480830192600092919082900301818387803b1580156119e657600080fd5b505af11580156119fa573d6000803e3d6000fd5b505050505050565b600082611a11575060006113d4565b82820282848281611a1e57fe5b0414611a5b5760405162461bcd60e51b81526004018080602001828103825260218152602001806123ae6021913960400191505060405180910390fd5b9392505050565b600082820183811015611a5b576040805162461bcd60e51b815260206004820152601b60248201527f536166654d6174683a206164646974696f6e206f766572666c6f770000000000604482015290519081900360640190fd5b6000611a5b83836040518060400160405280601a81526020017f536166654d6174683a206469766973696f6e206279207a65726f000000000000815250611f84565b3390565b600060098281548110611b1157fe5b60009182526020808320858452600b82526040808520338652909252922080546004909202909201925015611d78576000611b6e826001015461154e64e8d4a510006106f087600301548760000154611a0290919063ffffffff16565b600154604080516370a0823160e01b815230600482015290519293506000926001600160a01b03909216916370a0823191602480820192602092909190829003018186803b158015611bbf57600080fd5b505afa158015611bd3573d6000803e3d6000fd5b505050506040513d6020811015611be957600080fd5b5051905080821115611bf9578091505b8115611d55576001546040805163a9059cbb60e01b81523360048201526024810185905290516001600160a01b039092169163a9059cbb916044808201926020929091908290030181600087803b158015611c5357600080fd5b505af1158015611c67573d6000803e3d6000fd5b505050506040513d6020811015611c7d57600080fd5b5050600654600284015460009110611d0e57611c9f60646106f085604b611a02565b6001546040805163282d3fdf60e01b81523360048201526024810184905290519293506001600160a01b039091169163282d3fdf9160448082019260009290919082900301818387803b158015611cf557600080fd5b505af1158015611d09573d6000803e3d6000fd5b505050505b43600285015560408051848152602081018390528151889233927f9a5c030599d250af5ed40fb96db6d2d201983eebdae3ce97b2cc04e0da9bcd2b929081900390910190a3505b60038401548354611d709164e8d4a51000916106f091611a02565b600184015550505b505050565b6000611a5b83836040518060400160405280601e81526020017f536166654d6174683a207375627472616374696f6e206f766572666c6f770000815250612026565b604080516001600160a01b038416602482015260448082018490528251808303909101815260649091019091526020810180516001600160e01b031663a9059cbb60e01b179052611d78908490612080565b801580611e97575060408051636eb1769f60e11b81523060048201526001600160a01b03848116602483015291519185169163dd62ed3e91604480820192602092909190829003018186803b158015611e6957600080fd5b505afa158015611e7d573d6000803e3d6000fd5b505050506040513d6020811015611e9357600080fd5b5051155b611ed25760405162461bcd60e51b81526004018080602001828103825260368152602001806124196036913960400191505060405180910390fd5b604080516001600160a01b038416602482015260448082018490528251808303909101815260649091019091526020810180516001600160e01b031663095ea7b360e01b179052611d78908490612080565b604080516001600160a01b0380861660248301528416604482015260648082018490528251808303909101815260849091019091526020810180516001600160e01b03166323b872dd60e01b179052611f7e908590612080565b50505050565b600081836120105760405162461bcd60e51b81526004018080602001828103825283818151815260200191508051906020019080838360005b83811015611fd5578181015183820152602001611fbd565b50505050905090810190601f1680156120025780820380516001836020036101000a031916815260200191505b509250505060405180910390fd5b50600083858161201c57fe5b0495945050505050565b600081848411156120785760405162461bcd60e51b8152602060048201818152835160248401528351909283926044909101919085019080838360008315611fd5578181015183820152602001611fbd565b505050900390565b60606120d5826040518060400160405280602081526020017f5361666545524332303a206c6f772d6c6576656c2063616c6c206661696c6564815250856001600160a01b03166121319092919063ffffffff16565b805190915015611d78578080602001905160208110156120f457600080fd5b5051611d785760405162461bcd60e51b815260040180806020018281038252602a8152602001806123ef602a913960400191505060405180910390fd5b60606121408484600085612148565b949350505050565b6060824710156121895760405162461bcd60e51b81526004018080602001828103825260268152602001806123886026913960400191505060405180910390fd5b61219285612299565b6121e3576040805162461bcd60e51b815260206004820152601d60248201527f416464726573733a2063616c6c20746f206e6f6e2d636f6e7472616374000000604482015290519081900360640190fd5b60006060866001600160a01b031685876040518082805190602001908083835b602083106122225780518252601f199092019160209182019101612203565b6001836020036101000a03801982511681845116808217855250505050505090500191505060006040518083038185875af1925050503d8060008114612284576040519150601f19603f3d011682016040523d82523d6000602084013e612289565b606091505b509150915061155482828661229f565b3b151590565b606083156122ae575081611a5b565b8251156122be5782518084602001fd5b60405162461bcd60e51b8152602060048201818152845160248401528451859391928392604401919085019080838360008315611fd5578181015183820152602001611fbd56fe536f6e654d61737465724661726d65723a3a6465706f7369743a20616d6f756e74206d7573742062652067726561746572207468616e20304f776e61626c653a206e6577206f776e657220697320746865207a65726f2061646472657373536f6e654d61737465724661726d65723a3a77697468647261773a206e6f7420676f6f64416464726573733a20696e73756666696369656e742062616c616e636520666f722063616c6c536166654d6174683a206d756c7469706c69636174696f6e206f766572666c6f774f776e61626c653a2063616c6c6572206973206e6f7420746865206f776e65725361666545524332303a204552433230206f7065726174696f6e20646964206e6f7420737563636565645361666545524332303a20617070726f76652066726f6d206e6f6e2d7a65726f20746f206e6f6e2d7a65726f20616c6c6f77616e6365536f6e654d61737465724661726d65723a3a6164643a206c7020697320616c726561647920696e20706f6f6ca264697066735822122039f747ed4cd6f4212e54ed54a46bd34eb7c193d797220a7aa7f5d8241be76bc964736f6c634300060c0033036b6384b5eca791c62761152d0c79bb0604c104a5fb6f4eb0703f3154bb3db0536166654d6174683a206d756c7469706c69636174696f6e206f766572666c6f77",
  "immutableReferences": {},
  "source": "// SPDX-License-Identifier: UNLICENSED\n// SoneMasterFarmer\npragma solidity 0.6.12;\n\n\nimport \"@openzeppelin/contracts/token/ERC20/IERC20.sol\";\nimport \"@openzeppelin/contracts/token/ERC20/SafeERC20.sol\";\nimport \"@openzeppelin/contracts/utils/EnumerableSet.sol\";\nimport \"@openzeppelin/contracts/math/SafeMath.sol\";\nimport \"@openzeppelin/contracts/access/Ownable.sol\";\nimport \"./interfaces/ISoneToken.sol\";\n\n\ninterface IMigratorToSoneSwap {\n    // Perform LP token migration from legacy UniswapV2 to SoneSwap.\n    // Take the current LP token address and return the new LP token address.\n    // Migrator should have full access to the caller's LP token.\n    // Return the new LP token address.\n    //\n    // XXX Migrator must have allowance access to UniswapV2 LP tokens.\n    // SoneSwap must mint EXACTLY the same amount of SoneSwap LP tokens or\n    // else something bad will happen. Traditional UniswapV2 does not\n    // do that so be careful!\n    function migrate(IERC20 token) external returns (IERC20);\n}\n\n// SoneMasterFarmer is the master of SONE. He can make SONE and he is a fair guy.\n//\n// Note that it's ownable and the owner wields tremendous power. The ownership\n// will be transferred to a governance smart contract once SONE is sufficiently\n// distributed and the community can show to govern itself.\n//\n// Have fun reading it. Hopefully it's bug-free. God bless.\ncontract SoneMasterFarmer is Ownable {\n    using SafeMath for uint256;\n    using SafeERC20 for IERC20;\n\n    // Info of each user.\n    struct UserInfo {\n        uint256 amount;     // How many LP tokens the user has provided.\n        uint256 rewardDebt; // Reward debt. See explanation below.\n        uint256 rewardDebtAtBlock; // the last block user stake\n        //\n        // We do some fancy math here. Basically, any point in time, the amount of SONEs\n        // entitled to a user but is pending to be distributed is:\n        //\n        //   pending reward = (user.amount * pool.accSonePerShare) - user.rewardDebt\n        //\n        // Whenever a user deposits or withdraws LP tokens to a pool. Here's what happens:\n        //   1. The pool's `accSonePerShare` (and `lastRewardBlock`) gets updated.\n        //   2. User receives the pending reward sent to his/her address.\n        //   3. User's `amount` gets updated.\n        //   4. User's `rewardDebt` gets updated.\n    }\n\n    // Info of each pool.\n    struct PoolInfo {\n        IERC20 lpToken;           // Address of LP token contract.\n        uint256 allocPoint;       // How many allocation points assigned to this pool. SONEs to distribute per block.\n        uint256 lastRewardBlock;  // Last block number that SONEs distribution occurs.\n        uint256 accSonePerShare; // Accumulated SONEs per share, times 1e12. See below.\n    }\n\n    // The SONE TOKEN!\n    ISoneToken public sone;\n    // Dev address.\n    address public devaddr;\n    // SONE tokens created per block.\n    uint256 public REWARD_PER_BLOCK;\n    // Bonus muliplier for early SONE makers.\n    uint256[] public REWARD_MULTIPLIER = [32, 32, 32, 32, 16, 8, 4, 2, 1];\n    uint256[] public HALVING_AT_BLOCK; // init in constructor function\n    uint256 public FINISH_BONUS_AT_BLOCK;\n\n    // The block number when SONE mining starts.\n    uint256 public START_BLOCK;\n\n    uint256 public constant PERCENT_LOCK_BONUS_REWARD = 75; // lock 75% of bounus reward in 1 year\n    uint256 public constant PERCENT_FOR_DEV = 10; // 10% reward for dev\n\n    // The migrator contract. It has a lot of power. Can only be set through governance (owner).\n    IMigratorToSoneSwap public migrator;\n\n    // Info of each pool.\n    PoolInfo[] public poolInfo;\n    mapping(address => uint256) public poolId1; // poolId1 count from 1, subtraction 1 before using with poolInfo\n    // Info of each user that stakes LP tokens. pid => user address => info\n    mapping (uint256 => mapping (address => UserInfo)) public userInfo;\n    // Total allocation poitns. Must be the sum of all allocation points in all pools.\n    uint256 public totalAllocPoint = 0;\n\n    event Deposit(address indexed user, uint256 indexed pid, uint256 amount);\n    event Withdraw(address indexed user, uint256 indexed pid, uint256 amount);\n    event EmergencyWithdraw(address indexed user, uint256 indexed pid, uint256 amount);\n    event SendSoneReward(address indexed user, uint256 indexed pid, uint256 amount, uint256 lockAmount);\n\n    constructor(\n        ISoneToken _sone,\n        address _devaddr,\n        uint256 _rewardPerBlock,\n        uint256 _startBlock,\n        uint256 _halvingAfterBlock\n    ) public {\n        sone = _sone;\n        devaddr = _devaddr;\n        REWARD_PER_BLOCK = _rewardPerBlock;\n        START_BLOCK = _startBlock;\n        for (uint256 i = 0; i < REWARD_MULTIPLIER.length - 1; i++) {\n            uint256 halvingAtBlock = _halvingAfterBlock.mul(i + 1).add(_startBlock);\n            HALVING_AT_BLOCK.push(halvingAtBlock);\n        }\n        FINISH_BONUS_AT_BLOCK = _halvingAfterBlock.mul(REWARD_MULTIPLIER.length - 1).add(_startBlock);\n        HALVING_AT_BLOCK.push(uint256(-1));\n    }\n\n    function poolLength() external view returns (uint256) {\n        return poolInfo.length;\n    }\n\n    // Add a new lp to the pool. Can only be called by the owner.\n    function add(uint256 _allocPoint, IERC20 _lpToken, bool _withUpdate) public onlyOwner {\n        require(poolId1[address(_lpToken)] == 0, \"SoneMasterFarmer::add: lp is already in pool\");\n        if (_withUpdate) {\n            massUpdatePools();\n        }\n        uint256 lastRewardBlock = block.number > START_BLOCK ? block.number : START_BLOCK;\n        totalAllocPoint = totalAllocPoint.add(_allocPoint);\n        poolId1[address(_lpToken)] = poolInfo.length + 1;\n        poolInfo.push(PoolInfo({\n            lpToken: _lpToken,\n            allocPoint: _allocPoint,\n            lastRewardBlock: lastRewardBlock,\n            accSonePerShare: 0\n        }));\n    }\n\n    // Update the given pool's SONE allocation point. Can only be called by the owner.\n    function set(uint256 _pid, uint256 _allocPoint, bool _withUpdate) public onlyOwner {\n        if (_withUpdate) {\n            massUpdatePools();\n        }\n        totalAllocPoint = totalAllocPoint.sub(poolInfo[_pid].allocPoint).add(_allocPoint);\n        poolInfo[_pid].allocPoint = _allocPoint;\n    }\n\n    // Set the migrator contract. Can only be called by the owner.\n    function setMigrator(IMigratorToSoneSwap _migrator) public onlyOwner {\n        migrator = _migrator;\n    }\n\n    // Migrate lp token to another lp contract. Can be called by anyone. We trust that migrator contract is good.\n    function migrate(uint256 _pid) public {\n        require(address(migrator) != address(0), \"migrate: no migrator\");\n        PoolInfo storage pool = poolInfo[_pid];\n        IERC20 lpToken = pool.lpToken;\n        uint256 bal = lpToken.balanceOf(address(this));\n        lpToken.safeApprove(address(migrator), bal);\n        IERC20 newLpToken = migrator.migrate(lpToken);\n        require(bal == newLpToken.balanceOf(address(this)), \"migrate: bad\");\n        pool.lpToken = newLpToken;\n    }\n\n    // Update reward variables for all pools. Be careful of gas spending!\n    function massUpdatePools() public {\n        uint256 length = poolInfo.length;\n        for (uint256 pid = 0; pid < length; ++pid) {\n            updatePool(pid);\n        }\n    }\n\n    // Update reward variables of the given pool to be up-to-date.\n    function updatePool(uint256 _pid) public {\n        PoolInfo storage pool = poolInfo[_pid];\n        if (block.number <= pool.lastRewardBlock) {\n            return;\n        }\n        uint256 lpSupply = pool.lpToken.balanceOf(address(this));\n        if (lpSupply == 0) {\n            pool.lastRewardBlock = block.number;\n            return;\n        }\n        uint256 soneForDev;\n        uint256 soneForFarmer;\n        (soneForDev, soneForFarmer) = getPoolReward(pool.lastRewardBlock, block.number, pool.allocPoint);\n        \n        if (soneForDev > 0) {\n            sone.mint(devaddr, soneForDev);\n            // For more simple, I lock reward for dev if mint reward in bonus time\n            if (block.number <= FINISH_BONUS_AT_BLOCK) {\n                sone.lock(devaddr, soneForDev.mul(PERCENT_LOCK_BONUS_REWARD).div(100));\n            }\n        }\n        sone.mint(address(this), soneForFarmer);\n        pool.accSonePerShare = pool.accSonePerShare.add(soneForFarmer.mul(1e12).div(lpSupply));\n        pool.lastRewardBlock = block.number;\n    }\n\n    // |--------------------------------------|\n    // [20, 30, 40, 50, 60, 70, 80, 99999999]\n    // Return reward multiplier over the given _from to _to block.\n    function getMultiplier(uint256 _from, uint256 _to) public view returns (uint256) {\n        uint256 result = 0;\n        if (_from < START_BLOCK) return 0;\n\n        for (uint256 i = 0; i < HALVING_AT_BLOCK.length; i++) {\n            uint256 endBlock = HALVING_AT_BLOCK[i];\n\n            if (_to <= endBlock) {\n                uint256 m = _to.sub(_from).mul(REWARD_MULTIPLIER[i]);\n                return result.add(m);\n            }\n\n            if (_from < endBlock) {\n                uint256 m = endBlock.sub(_from).mul(REWARD_MULTIPLIER[i]);\n                _from = endBlock;\n                result = result.add(m);\n            }\n        }\n\n        return result;\n    }\n\n    function getPoolReward(uint256 _from, uint256 _to, uint256 _allocPoint) public view returns (uint256 forDev, uint256 forFarmer) {\n        uint256 multiplier = getMultiplier(_from, _to);\n        uint256 amount = multiplier.mul(REWARD_PER_BLOCK).mul(_allocPoint).div(totalAllocPoint);\n        uint256 soneCanMint = sone.cap().sub(sone.totalSupply());\n\n        if (soneCanMint < amount) {\n            forDev = 0;\n            forFarmer = soneCanMint;\n        }else{\n            if (soneCanMint < amount.mul(PERCENT_FOR_DEV+100).div(100)){\n                forDev = 0;\n                forFarmer = amount;\n            }else{\n                forDev = amount.mul(PERCENT_FOR_DEV).div(100);\n                forFarmer = amount;\n            }\n        }\n    }\n\n    // View function to see pending SONEs on frontend.\n    function pendingReward(uint256 _pid, address _user) external view returns (uint256) {\n        PoolInfo storage pool = poolInfo[_pid];\n        UserInfo storage user = userInfo[_pid][_user];\n        uint256 accSonePerShare = pool.accSonePerShare;\n        uint256 lpSupply = pool.lpToken.balanceOf(address(this));\n        if (block.number > pool.lastRewardBlock && lpSupply > 0) {\n            uint256 soneForFarmer;\n            (, soneForFarmer) = getPoolReward(pool.lastRewardBlock, block.number, pool.allocPoint);\n            accSonePerShare = accSonePerShare.add(soneForFarmer.mul(1e12).div(lpSupply));\n\n        }\n        return user.amount.mul(accSonePerShare).div(1e12).sub(user.rewardDebt);\n    }\n\n    function claimReward(uint256 _pid) public {\n        updatePool(_pid);\n        _harvest(_pid);\n    }\n\n    // lock 75% of reward if it come from bounus time\n    function _harvest(uint256 _pid) internal {\n        PoolInfo storage pool = poolInfo[_pid];\n        UserInfo storage user = userInfo[_pid][msg.sender];\n\n        if (user.amount > 0) {\n            uint256 pending = user.amount.mul(pool.accSonePerShare).div(1e12).sub(user.rewardDebt);\n            uint256 masterBal = sone.balanceOf(address(this));\n\n            if (pending > masterBal) {\n                pending = masterBal;\n            }\n            \n            if(pending > 0) {\n                sone.transfer(msg.sender, pending);\n                uint256 lockAmount = 0;\n                if (user.rewardDebtAtBlock <= FINISH_BONUS_AT_BLOCK) {\n                    lockAmount = pending.mul(PERCENT_LOCK_BONUS_REWARD).div(100);\n                    sone.lock(msg.sender, lockAmount);\n                }\n\n                user.rewardDebtAtBlock = block.number;\n\n                emit SendSoneReward(msg.sender, _pid, pending, lockAmount);\n            }\n\n            user.rewardDebt = user.amount.mul(pool.accSonePerShare).div(1e12);\n        }\n    }\n\n    // Deposit LP tokens to SoneMasterFarmer for SUSHI allocation.\n    function deposit(uint256 _pid, uint256 _amount) public {\n        require(_amount > 0, \"SoneMasterFarmer::deposit: amount must be greater than 0\");\n\n        PoolInfo storage pool = poolInfo[_pid];\n        UserInfo storage user = userInfo[_pid][msg.sender];\n        updatePool(_pid);\n        _harvest(_pid);\n        pool.lpToken.safeTransferFrom(address(msg.sender), address(this), _amount);\n        if (user.amount == 0) {\n            user.rewardDebtAtBlock = block.number;\n        }\n        user.amount = user.amount.add(_amount);\n        user.rewardDebt = user.amount.mul(pool.accSonePerShare).div(1e12);\n        emit Deposit(msg.sender, _pid, _amount);\n    }\n\n    // Withdraw LP tokens from SoneMasterFarmer.\n    function withdraw(uint256 _pid, uint256 _amount) public {\n        PoolInfo storage pool = poolInfo[_pid];\n        UserInfo storage user = userInfo[_pid][msg.sender];\n        require(user.amount >= _amount, \"SoneMasterFarmer::withdraw: not good\");\n\n        updatePool(_pid);\n        _harvest(_pid);\n        \n        if(_amount > 0) {\n            user.amount = user.amount.sub(_amount);\n            pool.lpToken.safeTransfer(address(msg.sender), _amount);\n        }\n        user.rewardDebt = user.amount.mul(pool.accSonePerShare).div(1e12);\n        emit Withdraw(msg.sender, _pid, _amount);\n    }\n\n    // Withdraw without caring about rewards. EMERGENCY ONLY.\n    function emergencyWithdraw(uint256 _pid) public {\n        PoolInfo storage pool = poolInfo[_pid];\n        UserInfo storage user = userInfo[_pid][msg.sender];\n        pool.lpToken.safeTransfer(address(msg.sender), user.amount);\n        emit EmergencyWithdraw(msg.sender, _pid, user.amount);\n        user.amount = 0;\n        user.rewardDebt = 0;\n    }\n\n    // Safe sone transfer function, just in case if rounding error causes pool to not have enough SONEs.\n    function safeSoneTransfer(address _to, uint256 _amount) internal {\n        uint256 soneBal = sone.balanceOf(address(this));\n        if (_amount > soneBal) {\n            sone.transfer(_to, soneBal);\n        } else {\n            sone.transfer(_to, _amount);\n        }\n    }\n\n    // Update dev address by the previous dev.\n    function dev(address _devaddr) public {\n        require(msg.sender == devaddr, \"dev: wut?\");\n        devaddr = _devaddr;\n    }\n\n    function getNewRewardPerBlock(uint256 pid1) public view returns (uint256) {\n        uint256 multiplier = getMultiplier(block.number -1, block.number);\n        if (pid1 == 0) {\n            return multiplier.mul(REWARD_PER_BLOCK);\n        }\n        else {\n            return multiplier\n                .mul(REWARD_PER_BLOCK)\n                .mul(poolInfo[pid1 - 1].allocPoint)\n                .div(totalAllocPoint);\n        }\n    }\n    // mint SONE token via MasterFarmer\n    function mintSoneToken(address account, uint amount) public onlyOwner{\n        sone.mint(account, amount);\n    }\n    // transfer ownership SONE token\n    function transferOwnershipSoneToken(address newOwner) public onlyOwner {\n        sone.transferOwnership(newOwner);\n    }\n}\n",
  "sourcePath": "/Users/danielpham/Documentation/01_VNext/02_2021/03_S-ONE_Finance/02_Source/sone-smart-contract/contracts/SoneMasterFarmer.sol",
  "compiler": {
    "name": "solc",
    "version": "0.6.12+commit.27d51765.Emscripten.clang"
  },
  "schemaVersion": "3.4.1",
  "updatedAt": "2021-06-16T02:58:22.981Z",
  "devdoc": {
    "kind": "dev",
    "methods": {
      "owner()": {
        "details": "Returns the address of the current owner."
      },
      "renounceOwnership()": {
        "details": "Leaves the contract without owner. It will not be possible to call `onlyOwner` functions anymore. Can only be called by the current owner. NOTE: Renouncing ownership will leave the contract without an owner, thereby removing any functionality that is only available to the owner."
      },
      "transferOwnership(address)": {
        "details": "Transfers ownership of the contract to a new account (`newOwner`). Can only be called by the current owner."
      }
    },
    "version": 1
  },
  "userdoc": {
    "kind": "user",
    "methods": {},
    "version": 1
  }
}