{
  "contractName": "UniswapV2Factory",
  "abi": [
    {
      "inputs": [
        {
          "internalType": "address",
          "name": "_feeSetter",
          "type": "address"
        }
      ],
      "stateMutability": "nonpayable",
      "type": "constructor"
    },
    {
      "anonymous": false,
      "inputs": [
        {
          "indexed": true,
          "internalType": "address",
          "name": "token0",
          "type": "address"
        },
        {
          "indexed": true,
          "internalType": "address",
          "name": "token1",
          "type": "address"
        },
        {
          "indexed": false,
          "internalType": "address",
          "name": "pair",
          "type": "address"
        },
        {
          "indexed": false,
          "internalType": "uint256",
          "name": "",
          "type": "uint256"
        }
      ],
      "name": "PairCreated",
      "type": "event"
    },
    {
      "inputs": [
        {
          "internalType": "uint256",
          "name": "",
          "type": "uint256"
        }
      ],
      "name": "allPairs",
      "outputs": [
        {
          "internalType": "address",
          "name": "",
          "type": "address"
        }
      ],
      "stateMutability": "view",
      "type": "function"
    },
    {
      "inputs": [],
      "name": "feeSetter",
      "outputs": [
        {
          "internalType": "address",
          "name": "",
          "type": "address"
        }
      ],
      "stateMutability": "view",
      "type": "function"
    },
    {
      "inputs": [],
      "name": "feeTo",
      "outputs": [
        {
          "internalType": "address",
          "name": "",
          "type": "address"
        }
      ],
      "stateMutability": "view",
      "type": "function"
    },
    {
      "inputs": [
        {
          "internalType": "address",
          "name": "",
          "type": "address"
        },
        {
          "internalType": "address",
          "name": "",
          "type": "address"
        }
      ],
      "name": "getPair",
      "outputs": [
        {
          "internalType": "address",
          "name": "",
          "type": "address"
        }
      ],
      "stateMutability": "view",
      "type": "function"
    },
    {
      "inputs": [],
      "name": "migrator",
      "outputs": [
        {
          "internalType": "address",
          "name": "",
          "type": "address"
        }
      ],
      "stateMutability": "view",
      "type": "function"
    },
    {
      "inputs": [],
      "name": "soneConvert",
      "outputs": [
        {
          "internalType": "address",
          "name": "",
          "type": "address"
        }
      ],
      "stateMutability": "view",
      "type": "function"
    },
    {
      "inputs": [],
      "name": "swapFee",
      "outputs": [
        {
          "internalType": "uint256",
          "name": "",
          "type": "uint256"
        }
      ],
      "stateMutability": "view",
      "type": "function"
    },
    {
      "inputs": [],
      "name": "withdrawFee",
      "outputs": [
        {
          "internalType": "uint256",
          "name": "",
          "type": "uint256"
        }
      ],
      "stateMutability": "view",
      "type": "function"
    },
    {
      "inputs": [],
      "name": "withdrawFeeTo",
      "outputs": [
        {
          "internalType": "address",
          "name": "",
          "type": "address"
        }
      ],
      "stateMutability": "view",
      "type": "function"
    },
    {
      "inputs": [],
      "name": "allPairsLength",
      "outputs": [
        {
          "internalType": "uint256",
          "name": "",
          "type": "uint256"
        }
      ],
      "stateMutability": "view",
      "type": "function"
    },
    {
      "inputs": [],
      "name": "pairCodeHash",
      "outputs": [
        {
          "internalType": "bytes32",
          "name": "",
          "type": "bytes32"
        }
      ],
      "stateMutability": "pure",
      "type": "function"
    },
    {
      "inputs": [
        {
          "internalType": "address",
          "name": "tokenA",
          "type": "address"
        },
        {
          "internalType": "address",
          "name": "tokenB",
          "type": "address"
        }
      ],
      "name": "createPair",
      "outputs": [
        {
          "internalType": "address",
          "name": "pair",
          "type": "address"
        }
      ],
      "stateMutability": "nonpayable",
      "type": "function"
    },
    {
      "inputs": [
        {
          "internalType": "address",
          "name": "_feeTo",
          "type": "address"
        }
      ],
      "name": "setFeeTo",
      "outputs": [],
      "stateMutability": "nonpayable",
      "type": "function"
    },
    {
      "inputs": [
        {
          "internalType": "address",
          "name": "_withdrawFeeTo",
          "type": "address"
        }
      ],
      "name": "setWithdrawFeeTo",
      "outputs": [],
      "stateMutability": "nonpayable",
      "type": "function"
    },
    {
      "inputs": [
        {
          "internalType": "address",
          "name": "_migrator",
          "type": "address"
        }
      ],
      "name": "setMigrator",
      "outputs": [],
      "stateMutability": "nonpayable",
      "type": "function"
    },
    {
      "inputs": [
        {
          "internalType": "address",
          "name": "_feeSetter",
          "type": "address"
        }
      ],
      "name": "setFeeSetter",
      "outputs": [],
      "stateMutability": "nonpayable",
      "type": "function"
    },
    {
      "inputs": [
        {
          "internalType": "uint256",
          "name": "_swapFee",
          "type": "uint256"
        }
      ],
      "name": "setSwapFee",
      "outputs": [],
      "stateMutability": "nonpayable",
      "type": "function"
    },
    {
      "inputs": [
        {
          "internalType": "address",
          "name": "_soneConvert",
          "type": "address"
        }
      ],
      "name": "setSoneConvert",
      "outputs": [],
      "stateMutability": "nonpayable",
      "type": "function"
    }
  ],
  "bytecode": "0x60806040526003600255600160035534801561001a57600080fd5b5060405161356e38038061356e8339818101604052602081101561003d57600080fd5b5051600480546001600160a01b0319166001600160a01b039092169190911790556135018061006d6000396000f3fe608060405234801561001057600080fd5b50600436106101165760003560e01c80637cd07e47116100a2578063c9c6539611610071578063c9c6539614610255578063e4dae38714610283578063e6a439051461028b578063e941fa78146102b9578063f46901ed146102c157610116565b80637cd07e471461021757806387cf3ef41461021f5780639aab924814610227578063b19805af1461022f57610116565b80633f18dab5116100e95780633f18dab5146101a157806344f18430146101a95780634790b6b3146101cf57806354cf2aeb146101f5578063574f2ba31461020f57610116565b8063017e7e581461011b5780631e3dd18b1461013f57806323cf31181461015c57806334e1990714610184575b600080fd5b6101236102e7565b604080516001600160a01b039092168252519081900360200190f35b6101236004803603602081101561015557600080fd5b50356102f6565b6101826004803603602081101561017257600080fd5b50356001600160a01b031661031d565b005b6101826004803603602081101561019a57600080fd5b5035610395565b61012361049c565b610182600480360360208110156101bf57600080fd5b50356001600160a01b03166104ab565b610182600480360360208110156101e557600080fd5b50356001600160a01b0316610523565b6101fd61059b565b60408051918252519081900360200190f35b6101fd6105a1565b6101236105a7565b6101236105b6565b6101fd6105c5565b6101826004803603602081101561024557600080fd5b50356001600160a01b03166105f7565b6101236004803603604081101561026b57600080fd5b506001600160a01b038135811691602001351661066f565b61012361099a565b610123600480360360408110156102a157600080fd5b506001600160a01b03813581169160200135166109a9565b6101fd6109cf565b610182600480360360208110156102d757600080fd5b50356001600160a01b03166109d5565b6000546001600160a01b031681565b6008818154811061030357fe5b6000918252602090912001546001600160a01b0316905081565b6004546001600160a01b03163314610373576040805162461bcd60e51b81526020600482015260146024820152732ab734b9bbb0b82b191d102327a92124a22222a760611b604482015290519081900360640190fd5b600580546001600160a01b0319166001600160a01b0392909216919091179055565b6004546001600160a01b031633146103eb576040805162461bcd60e51b81526020600482015260146024820152732ab734b9bbb0b82b191d102327a92124a22222a760611b604482015290519081900360640190fd5b8060011115610441576040805162461bcd60e51b815260206004820152601b60248201527f556e697377617056323a20696e76616c69642073776170206665650000000000604482015290519081900360640190fd5b8060061015610497576040805162461bcd60e51b815260206004820152601b60248201527f556e697377617056323a20696e76616c69642073776170206665650000000000604482015290519081900360640190fd5b600255565b6006546001600160a01b031681565b6004546001600160a01b03163314610501576040805162461bcd60e51b81526020600482015260146024820152732ab734b9bbb0b82b191d102327a92124a22222a760611b604482015290519081900360640190fd5b600180546001600160a01b0319166001600160a01b0392909216919091179055565b6004546001600160a01b03163314610579576040805162461bcd60e51b81526020600482015260146024820152732ab734b9bbb0b82b191d102327a92124a22222a760611b604482015290519081900360640190fd5b600680546001600160a01b0319166001600160a01b0392909216919091179055565b60025481565b60085490565b6005546001600160a01b031681565b6004546001600160a01b031681565b6000604051806020016105d790610a4d565b6020820181038252601f19601f8201166040525080519060200120905090565b6004546001600160a01b0316331461064d576040805162461bcd60e51b81526020600482015260146024820152732ab734b9bbb0b82b191d102327a92124a22222a760611b604482015290519081900360640190fd5b600480546001600160a01b0319166001600160a01b0392909216919091179055565b6000816001600160a01b0316836001600160a01b031614156106d8576040805162461bcd60e51b815260206004820152601e60248201527f556e697377617056323a204944454e544943414c5f4144445245535345530000604482015290519081900360640190fd5b600080836001600160a01b0316856001600160a01b0316106106fb5783856106fe565b84845b90925090506001600160a01b03821661075e576040805162461bcd60e51b815260206004820152601760248201527f556e697377617056323a205a45524f5f41444452455353000000000000000000604482015290519081900360640190fd5b6001600160a01b038281166000908152600760209081526040808320858516845290915290205416156107d1576040805162461bcd60e51b8152602060048201526016602482015275556e697377617056323a20504149525f45584953545360501b604482015290519081900360640190fd5b6060604051806020016107e390610a4d565b6020820181038252601f19601f8201166040525090506000838360405160200180836001600160a01b031660601b8152601401826001600160a01b031660601b815260140192505050604051602081830303815290604052805190602001209050808251602084016000f59450846001600160a01b031663485cc95585856040518363ffffffff1660e01b815260040180836001600160a01b03168152602001826001600160a01b0316815260200192505050600060405180830381600087803b1580156108b057600080fd5b505af11580156108c4573d6000803e3d6000fd5b505050506001600160a01b0384811660008181526007602081815260408084208987168086529083528185208054978d166001600160a01b031998891681179091559383528185208686528352818520805488168517905560088054600181018255958190527ff3f7a9fe364faab93b216da50a3214154f22a0a2b415b23a84c8169e8b636ee390950180549097168417909655925483519283529082015281517f0d3648bd0f6ba80134a33ba9275ac585d9d315f0ad8355cddefde31afa28d0e9929181900390910190a35050505092915050565b6001546001600160a01b031681565b60076020908152600092835260408084209091529082529020546001600160a01b031681565b60035481565b6004546001600160a01b03163314610a2b576040805162461bcd60e51b81526020600482015260146024820152732ab734b9bbb0b82b191d102327a92124a22222a760611b604482015290519081900360640190fd5b600080546001600160a01b0319166001600160a01b0392909216919091179055565b612a7180610a5b8339019056fe60806040526001600c5534801561001557600080fd5b50604080518082018252601481527f536f6e6553776170204c5020546f6b656e2056310000000000000000000000006020918201528151808301835260018152603160f81b9082015281517f8b73c3c69bb8fe3d512ecc4cf759cc79239f7b179b0ffacaa9a75d522b39400f818301527fe8f2be186899598cb7c9a35a5a53ba5138eb73bc54c7bea87747f7cf5d90cfaf818401527fc89efdaa54c0f20c7adf612882df0950f5a951637e0307cdcb4c672f298b8bc660608201524660808201523060a0808301919091528351808303909101815260c09091019092528151910120600355600580546001600160a01b031916331790556129568061011b6000396000f3fe608060405234801561001057600080fd5b50600436106101a95760003560e01c80636a627842116100f9578063ba9a7a5611610097578063d21220a711610071578063d21220a714610534578063d505accf1461053c578063dd62ed3e1461058d578063fff6cae9146105bb576101a9565b8063ba9a7a56146104fe578063bc25cf7714610506578063c45a01551461052c576101a9565b80637ecebe00116100d35780637ecebe001461046557806389afcb441461048b57806395d89b41146104ca578063a9059cbb146104d2576101a9565b80636a6278421461041157806370a08231146104375780637464fc3d1461045d576101a9565b806323b872dd116101665780633644e515116101405780633644e515146103cb578063485cc955146103d35780635909c0d5146104015780635a3d549314610409576101a9565b806323b872dd1461036f57806330adf81f146103a5578063313ce567146103ad576101a9565b8063022c0d9f146101ae57806306fdde031461023c5780630902f1ac146102b9578063095ea7b3146102f15780630dfe16811461033157806318160ddd14610355575b600080fd5b61023a600480360360808110156101c457600080fd5b8135916020810135916001600160a01b0360408301351691908101906080810160608201356401000000008111156101fb57600080fd5b82018360208201111561020d57600080fd5b8035906020019184600183028401116401000000008311171561022f57600080fd5b5090925090506105c3565b005b610244610b3d565b6040805160208082528351818301528351919283929083019185019080838360005b8381101561027e578181015183820152602001610266565b50505050905090810190601f1680156102ab5780820380516001836020036101000a031916815260200191505b509250505060405180910390f35b6102c1610b6d565b604080516001600160701b03948516815292909316602083015263ffffffff168183015290519081900360600190f35b61031d6004803603604081101561030757600080fd5b506001600160a01b038135169060200135610b97565b604080519115158252519081900360200190f35b610339610bae565b604080516001600160a01b039092168252519081900360200190f35b61035d610bbd565b60408051918252519081900360200190f35b61031d6004803603606081101561038557600080fd5b506001600160a01b03813581169160208101359091169060400135610bc3565b61035d610c57565b6103b5610c7b565b6040805160ff9092168252519081900360200190f35b61035d610c80565b61023a600480360360408110156103e957600080fd5b506001600160a01b0381358116916020013516610c86565b61035d610d0a565b61035d610d10565b61035d6004803603602081101561042757600080fd5b50356001600160a01b0316610d16565b61035d6004803603602081101561044d57600080fd5b50356001600160a01b0316611192565b61035d6111a4565b61035d6004803603602081101561047b57600080fd5b50356001600160a01b03166111aa565b6104b1600480360360208110156104a157600080fd5b50356001600160a01b03166111bc565b6040805192835260208301919091528051918290030190f35b610244611674565b61031d600480360360408110156104e857600080fd5b506001600160a01b038135169060200135611697565b61035d6116a4565b61023a6004803603602081101561051c57600080fd5b50356001600160a01b03166116aa565b61033961181c565b61033961182b565b61023a600480360360e081101561055257600080fd5b506001600160a01b03813581169160208101359091169060408101359060608101359060ff6080820135169060a08101359060c0013561183a565b61035d600480360360408110156105a357600080fd5b506001600160a01b0381358116916020013516611a3c565b61023a611a59565b600c5460011461060e576040805162461bcd60e51b8152602060048201526011602482015270155b9a5cddd85c158c8e881313d0d2d151607a1b604482015290519081900360640190fd5b6000600c55841515806106215750600084115b61065c5760405162461bcd60e51b81526004018080602001828103825260258152602001806128466025913960400191505060405180910390fd5b600080610667610b6d565b5091509150816001600160701b03168710801561068c5750806001600160701b031686105b6106c75760405162461bcd60e51b815260040180806020018281038252602181526020018061288f6021913960400191505060405180910390fd5b60065460075460009182916001600160a01b039182169190811690891682148015906107055750806001600160a01b0316896001600160a01b031614155b61074e576040805162461bcd60e51b8152602060048201526015602482015274556e697377617056323a20494e56414c49445f544f60581b604482015290519081900360640190fd5b8a1561075f5761075f828a8d611bbb565b891561077057610770818a8c611bbb565b861561082257886001600160a01b03166310d1e85c338d8d8c8c6040518663ffffffff1660e01b815260040180866001600160a01b03168152602001858152602001848152602001806020018281038252848482818152602001925080828437600081840152601f19601f8201169050808301925050509650505050505050600060405180830381600087803b15801561080957600080fd5b505af115801561081d573d6000803e3d6000fd5b505050505b604080516370a0823160e01b815230600482015290516001600160a01b038416916370a08231916024808301926020929190829003018186803b15801561086857600080fd5b505afa15801561087c573d6000803e3d6000fd5b505050506040513d602081101561089257600080fd5b5051604080516370a0823160e01b815230600482015290519195506001600160a01b038316916370a0823191602480820192602092909190829003018186803b1580156108de57600080fd5b505afa1580156108f2573d6000803e3d6000fd5b505050506040513d602081101561090857600080fd5b5051925060009150506001600160701b0385168a9003831161092b57600061093a565b89856001600160701b03160383035b9050600089856001600160701b0316038311610957576000610966565b89856001600160701b03160383035b905060008211806109775750600081115b6109b25760405162461bcd60e51b815260040180806020018281038252602481526020018061286b6024913960400191505060405180910390fd5b600554604080516354cf2aeb60e01b815290516000926001600160a01b0316916354cf2aeb916004808301926020929190829003018186803b1580156109f757600080fd5b505afa158015610a0b573d6000803e3d6000fd5b505050506040513d6020811015610a2157600080fd5b505190506000610a46610a348584611d55565b610a40886103e8611d55565b90611db5565b90506000610a57610a348585611d55565b9050610a7c620f4240610a766001600160701b038c8116908c16611d55565b90611d55565b610a868383611d55565b1015610ac8576040805162461bcd60e51b815260206004820152600c60248201526b556e697377617056323a204b60a01b604482015290519081900360640190fd5b505050610ad784848888611df7565b60408051838152602081018390528082018d9052606081018c905290516001600160a01b038b169133917fd78ad95fa46c994b6551d0da85fc275fe613ce37657fb8d5e3d130840159d8229181900360800190a350506001600c55505050505050505050565b60405180604001604052806014815260200173536f6e6553776170204c5020546f6b656e20563160601b81525081565b6008546001600160701b0380821692600160701b830490911691600160e01b900463ffffffff1690565b6000610ba4338484611fb6565b5060015b92915050565b6006546001600160a01b031681565b60005481565b6001600160a01b038316600090815260026020908152604080832033845290915281205460001914610c42576001600160a01b0384166000908152600260209081526040808320338452909152902054610c1d9083611db5565b6001600160a01b03851660009081526002602090815260408083203384529091529020555b610c4d848484612018565b5060019392505050565b7f6e71edae12b1b97f4d1f60370fef10105fa2faae0126114a169c64845d6126c981565b601281565b60035481565b6005546001600160a01b03163314610cdc576040805162461bcd60e51b81526020600482015260146024820152732ab734b9bbb0b82b191d102327a92124a22222a760611b604482015290519081900360640190fd5b600680546001600160a01b039384166001600160a01b03199182161790915560078054929093169116179055565b60095481565b600a5481565b6000600c54600114610d63576040805162461bcd60e51b8152602060048201526011602482015270155b9a5cddd85c158c8e881313d0d2d151607a1b604482015290519081900360640190fd5b6000600c81905580610d73610b6d565b50600654604080516370a0823160e01b815230600482015290519395509193506000926001600160a01b03909116916370a08231916024808301926020929190829003018186803b158015610dc757600080fd5b505afa158015610ddb573d6000803e3d6000fd5b505050506040513d6020811015610df157600080fd5b5051600754604080516370a0823160e01b815230600482015290519293506000926001600160a01b03909216916370a0823191602480820192602092909190829003018186803b158015610e4457600080fd5b505afa158015610e58573d6000803e3d6000fd5b505050506040513d6020811015610e6e57600080fd5b505190506000610e87836001600160701b038716611db5565b90506000610e9e836001600160701b038716611db5565b90506000610eac87876120c6565b600054909150806110835760055460408051637cd07e4760e01b815290516000926001600160a01b031691637cd07e47916004808301926020929190829003018186803b158015610efc57600080fd5b505afa158015610f10573d6000803e3d6000fd5b505050506040513d6020811015610f2657600080fd5b50519050336001600160a01b038216141561100157806001600160a01b03166340dc0e376040518163ffffffff1660e01b815260040160206040518083038186803b158015610f7457600080fd5b505afa158015610f88573d6000803e3d6000fd5b505050506040513d6020811015610f9e57600080fd5b505199508915801590610fb357506000198a14155b610ffc576040805162461bcd60e51b81526020600482015260156024820152744261642064657369726564206c697175696469747960581b604482015290519081900360640190fd5b61107d565b6001600160a01b03811615611056576040805162461bcd60e51b815260206004820152601660248201527526bab9ba103737ba103430bb329036b4b3b930ba37b960511b604482015290519081900360640190fd5b61106e6103e8610a406110698888611d55565b6123b0565b995061107d60006103e8612402565b506110c6565b6110c36001600160701b03891661109a8684611d55565b816110a157fe5b046001600160701b0389166110b68685611d55565b816110bd57fe5b0461248c565b98505b600089116111055760405162461bcd60e51b81526004018080602001828103825260288152602001806128d86028913960400191505060405180910390fd5b61110f8a8a612402565b61111b86868a8a611df7565b811561114557600854611141906001600160701b0380821691600160701b900416611d55565b600b555b6040805185815260208101859052815133927f4c209b5fc8ad50758f13e2e1088ba56a560dff690a1c6fef26394f4c03821c4f928290030190a250506001600c5550949695505050505050565b60016020526000908152604090205481565b600b5481565b60046020526000908152604090205481565b600080600c5460011461120a576040805162461bcd60e51b8152602060048201526011602482015270155b9a5cddd85c158c8e881313d0d2d151607a1b604482015290519081900360640190fd5b6000600c8190558061121a610b6d565b50600654600754604080516370a0823160e01b815230600482015290519496509294506001600160a01b039182169391169160009184916370a08231916024808301926020929190829003018186803b15801561127657600080fd5b505afa15801561128a573d6000803e3d6000fd5b505050506040513d60208110156112a057600080fd5b5051604080516370a0823160e01b815230600482015290519192506000916001600160a01b038516916370a08231916024808301926020929190829003018186803b1580156112ee57600080fd5b505afa158015611302573d6000803e3d6000fd5b505050506040513d602081101561131857600080fd5b5051306000908152600160209081526040808320546005548251637cd07e4760e01b8152925195965090946001600160a01b0390911692637cd07e479260048082019391829003018186803b15801561137057600080fd5b505afa158015611384573d6000803e3d6000fd5b505050506040513d602081101561139a57600080fd5b50519050336001600160a01b038216146113ba576113b7826124a2565b91505b60006113c689896120c6565b600054909150806113d78588611d55565b816113de57fe5b049b50806113ec8587611d55565b816113f357fe5b049a50600560009054906101000a90046001600160a01b03166001600160a01b0316633f18dab56040518163ffffffff1660e01b815260040160206040518083038186803b15801561144457600080fd5b505afa158015611458573d6000803e3d6000fd5b505050506040513d602081101561146e57600080fd5b50516001600160a01b031633146114ca5760008c11801561148f575060008b115b6114ca5760405162461bcd60e51b81526004018080602001828103825260288152602001806128b06028913960400191505060405180910390fd5b6114d430856125e9565b6114df888e8e611bbb565b6114ea878e8d611bbb565b604080516370a0823160e01b815230600482015290516001600160a01b038a16916370a08231916024808301926020929190829003018186803b15801561153057600080fd5b505afa158015611544573d6000803e3d6000fd5b505050506040513d602081101561155a57600080fd5b5051604080516370a0823160e01b815230600482015290519197506001600160a01b038916916370a0823191602480820192602092909190829003018186803b1580156115a657600080fd5b505afa1580156115ba573d6000803e3d6000fd5b505050506040513d60208110156115d057600080fd5b505194506115e086868c8c611df7565b811561160a57600854611606906001600160701b0380821691600160701b900416611d55565b600b555b8c6001600160a01b0316336001600160a01b03167fdccd412f0b1252819cb1fd330b93224ca42612892bb3f4f789976e6d819364968e8e604051808381526020018281526020019250505060405180910390a3505050505050505050506001600c81905550915091565b60405180604001604052806007815260200166534f4e452d563160c81b81525081565b6000610ba4338484612018565b6103e881565b600c546001146116f5576040805162461bcd60e51b8152602060048201526011602482015270155b9a5cddd85c158c8e881313d0d2d151607a1b604482015290519081900360640190fd5b6000600c55600654600754600854604080516370a0823160e01b815230600482015290516001600160a01b03948516949093169261179e9285928792611799926001600160701b03169185916370a0823191602480820192602092909190829003018186803b15801561176757600080fd5b505afa15801561177b573d6000803e3d6000fd5b505050506040513d602081101561179157600080fd5b505190611db5565b611bbb565b61181281846117996008600e9054906101000a90046001600160701b03166001600160701b0316856001600160a01b03166370a08231306040518263ffffffff1660e01b815260040180826001600160a01b0316815260200191505060206040518083038186803b15801561176757600080fd5b50506001600c5550565b6005546001600160a01b031681565b6007546001600160a01b031681565b42841015611884576040805162461bcd60e51b8152602060048201526012602482015271155b9a5cddd85c158c8e881156141254915160721b604482015290519081900360640190fd5b6003546001600160a01b0380891660008181526004602090815260408083208054600180820190925582517f6e71edae12b1b97f4d1f60370fef10105fa2faae0126114a169c64845d6126c98186015280840196909652958d166060860152608085018c905260a085019590955260c08085018b90528151808603909101815260e08501825280519083012061190160f01b6101008601526101028501969096526101228085019690965280518085039096018652610142840180825286519683019690962095839052610162840180825286905260ff89166101828501526101a284018890526101c28401879052519193926101e280820193601f1981019281900390910190855afa15801561199f573d6000803e3d6000fd5b5050604051601f1901519150506001600160a01b038116158015906119d55750886001600160a01b0316816001600160a01b0316145b611a26576040805162461bcd60e51b815260206004820152601c60248201527f556e697377617056323a20494e56414c49445f5349474e415455524500000000604482015290519081900360640190fd5b611a31898989611fb6565b505050505050505050565b600260209081526000928352604080842090915290825290205481565b600c54600114611aa4576040805162461bcd60e51b8152602060048201526011602482015270155b9a5cddd85c158c8e881313d0d2d151607a1b604482015290519081900360640190fd5b6000600c55600654604080516370a0823160e01b81523060048201529051611bb4926001600160a01b0316916370a08231916024808301926020929190829003018186803b158015611af557600080fd5b505afa158015611b09573d6000803e3d6000fd5b505050506040513d6020811015611b1f57600080fd5b5051600754604080516370a0823160e01b815230600482015290516001600160a01b03909216916370a0823191602480820192602092909190829003018186803b158015611b6c57600080fd5b505afa158015611b80573d6000803e3d6000fd5b505050506040513d6020811015611b9657600080fd5b50516008546001600160701b0380821691600160701b900416611df7565b6001600c55565b604080518082018252601981527f7472616e7366657228616464726573732c75696e74323536290000000000000060209182015281516001600160a01b0385811660248301526044808301869052845180840390910181526064909201845291810180516001600160e01b031663a9059cbb60e01b1781529251815160009460609489169392918291908083835b60208310611c685780518252601f199092019160209182019101611c49565b6001836020036101000a0380198251168184511680821785525050505050509050019150506000604051808303816000865af19150503d8060008114611cca576040519150601f19603f3d011682016040523d82523d6000602084013e611ccf565b606091505b5091509150818015611cfd575080511580611cfd5750808060200190516020811015611cfa57600080fd5b50515b611d4e576040805162461bcd60e51b815260206004820152601a60248201527f556e697377617056323a205452414e534645525f4641494c4544000000000000604482015290519081900360640190fd5b5050505050565b600082611d6457506000610ba8565b82820282848281611d7157fe5b0414611dae5760405162461bcd60e51b81526004018080602001828103825260218152602001806129006021913960400191505060405180910390fd5b9392505050565b6000611dae83836040518060400160405280601e81526020017f536166654d6174683a207375627472616374696f6e206f766572666c6f77000081525061267b565b6001600160701b038411801590611e1557506001600160701b038311155b611e5c576040805162461bcd60e51b8152602060048201526013602482015272556e697377617056323a204f564552464c4f5760681b604482015290519081900360640190fd5b60085463ffffffff42811691600160e01b90048116820390811615801590611e8c57506001600160701b03841615155b8015611ea057506001600160701b03831615155b15611f0b578063ffffffff16611ec885611eb986612712565b6001600160e01b031690612724565b600980546001600160e01b03929092169290920201905563ffffffff8116611ef384611eb987612712565b600a80546001600160e01b0392909216929092020190555b600880546dffffffffffffffffffffffffffff19166001600160701b03888116919091176dffffffffffffffffffffffffffff60701b1916600160701b8883168102919091176001600160e01b0316600160e01b63ffffffff871602179283905560408051848416815291909304909116602082015281517f1c411e9a96e071241c2f21f7726b17ae89e3cab4c78be50e062b03a9fffbbad1929181900390910190a1505050505050565b6001600160a01b03808416600081815260026020908152604080832094871680845294825291829020859055815185815291517f8c5be1e5ebec7d5bd14f71427d1e84f3dd0314c0f7b2291e5b200ac8c7c3b9259281900390910190a3505050565b6001600160a01b03831660009081526001602052604090205461203b9082611db5565b6001600160a01b03808516600090815260016020526040808220939093559084168152205461206a9082612749565b6001600160a01b0380841660008181526001602090815260409182902094909455805185815290519193928716927fddf252ad1be2c89b69c2b068fc378daa952ba7f163c4a11628f55a4df523b3ef92918290030190a3505050565b600080600560009054906101000a90046001600160a01b03166001600160a01b031663017e7e586040518163ffffffff1660e01b815260040160206040518083038186803b15801561211757600080fd5b505afa15801561212b573d6000803e3d6000fd5b505050506040513d602081101561214157600080fd5b5051600b546001600160a01b03821615801594509192509061239c57801561239757600061217e6110696001600160701b03888116908816611d55565b9050600061218b836123b0565b9050808211156123945760006121ad6121a48484611db5565b60005490611d55565b905060006121c6836121c0866002611d55565b90612749565b905060008183816121d357fe5b0490506000811180156122685750600560009054906101000a90046001600160a01b03166001600160a01b0316633f18dab56040518163ffffffff1660e01b815260040160206040518083038186803b15801561222f57600080fd5b505afa158015612243573d6000803e3d6000fd5b505050506040513d602081101561225957600080fd5b50516001600160a01b03163314155b1561239057600061227a8260026127a3565b1115612390576122948761228f8360026127a3565b612402565b60055460408051633f18dab560e01b815290516000926001600160a01b031691633f18dab5916004808301926020929190829003018186803b1580156122d957600080fd5b505afa1580156122ed573d6000803e3d6000fd5b505050506040513d602081101561230357600080fd5b50516001600160a01b0316146123905760055460408051633f18dab560e01b81529051612390926001600160a01b031691633f18dab5916004808301926020929190829003018186803b15801561235957600080fd5b505afa15801561236d573d6000803e3d6000fd5b505050506040513d602081101561238357600080fd5b505161228f8360026127a3565b5050505b50505b6123a8565b80156123a8576000600b555b505092915050565b600060038211156123f3575080600160028204015b818110156123ed578091506002818285816123dc57fe5b0401816123e557fe5b0490506123c5565b506123fd565b81156123fd575060015b919050565b60005461240f9082612749565b60009081556001600160a01b0383168152600160205260409020546124349082612749565b6001600160a01b03831660008181526001602090815260408083209490945583518581529351929391927fddf252ad1be2c89b69c2b068fc378daa952ba7f163c4a11628f55a4df523b3ef9281900390910190a35050565b600081831061249b5781611dae565b5090919050565b600080600560009054906101000a90046001600160a01b03166001600160a01b031663e4dae3876040518163ffffffff1660e01b815260040160206040518083038186803b1580156124f357600080fd5b505afa158015612507573d6000803e3d6000fd5b505050506040513d602081101561251d57600080fd5b505160055460408051631d283f4f60e31b815290519293506000926001600160a01b039092169163e941fa7891600480820192602092909190829003018186803b15801561256a57600080fd5b505afa15801561257e573d6000803e3d6000fd5b505050506040513d602081101561259457600080fd5b505190506001600160a01b038216156125de5760006125bf6103e86125b98785611d55565b906127a3565b90506125cc308483611bbb565b6125d68582611db5565b9350506125e2565b8392505b5050919050565b6001600160a01b03821660009081526001602052604090205461260c9082611db5565b6001600160a01b038316600090815260016020526040812091909155546126339082611db5565b60009081556040805183815290516001600160a01b038516917fddf252ad1be2c89b69c2b068fc378daa952ba7f163c4a11628f55a4df523b3ef919081900360200190a35050565b6000818484111561270a5760405162461bcd60e51b81526004018080602001828103825283818151815260200191508051906020019080838360005b838110156126cf5781810151838201526020016126b7565b50505050905090810190601f1680156126fc5780820380516001836020036101000a031916815260200191505b509250505060405180910390fd5b505050900390565b6001600160701b0316600160701b0290565b60006001600160701b0382166001600160e01b0384168161274157fe5b049392505050565b600082820183811015611dae576040805162461bcd60e51b815260206004820152601b60248201527f536166654d6174683a206164646974696f6e206f766572666c6f770000000000604482015290519081900360640190fd5b6000611dae83836040518060400160405280601a81526020017f536166654d6174683a206469766973696f6e206279207a65726f0000000000008152506000818361282f5760405162461bcd60e51b81526020600482018181528351602484015283519092839260449091019190850190808383600083156126cf5781810151838201526020016126b7565b50600083858161283b57fe5b049594505050505056fe556e697377617056323a20494e53554646494349454e545f4f55545055545f414d4f554e54556e697377617056323a20494e53554646494349454e545f494e5055545f414d4f554e54556e697377617056323a20494e53554646494349454e545f4c4951554944495459556e697377617056323a20494e53554646494349454e545f4c49515549444954595f4255524e4544556e697377617056323a20494e53554646494349454e545f4c49515549444954595f4d494e544544536166654d6174683a206d756c7469706c69636174696f6e206f766572666c6f77a2646970667358221220b23db8996373f4f078a061c2003ac9b448cc278885d5f5b141264fcdb4519fd364736f6c634300060c0033a2646970667358221220d346d98f8f07f7cd25d1cea50f99b25c894216527fd4a2d86423b150c00ce28264736f6c634300060c0033",
  "immutableReferences": {},
  "source": "// SPDX-License-Identifier: MIT\npragma solidity =0.6.12;\n\nimport './interfaces/IUniswapV2Factory.sol';\nimport './UniswapV2Pair.sol';\n\ncontract UniswapV2Factory is IUniswapV2Factory {\n    address public override feeTo;\n    address public override withdrawFeeTo;\n    \n    uint public override swapFee = 3; // 0.3% = 3/1000\n    uint public override withdrawFee = 1; // 0.1% = 1/1000\n\n    address public override feeSetter;\n    address public override migrator;\n\n    address public override soneConvert;\n\n    mapping(address => mapping(address => address)) public override getPair;\n    address[] public override allPairs;\n\n    event PairCreated(address indexed token0, address indexed token1, address pair, uint);\n\n    constructor(address _feeSetter) public {\n        feeSetter = _feeSetter;\n    }\n\n    function allPairsLength() external override view returns (uint) {\n        return allPairs.length;\n    }\n\n    function pairCodeHash() external pure returns (bytes32) {\n        return keccak256(type(UniswapV2Pair).creationCode);\n    }\n\n    function createPair(address tokenA, address tokenB) external override returns (address pair) {\n        require(tokenA != tokenB, 'UniswapV2: IDENTICAL_ADDRESSES');\n        (address token0, address token1) = tokenA < tokenB ? (tokenA, tokenB) : (tokenB, tokenA);\n        require(token0 != address(0), 'UniswapV2: ZERO_ADDRESS');\n        require(getPair[token0][token1] == address(0), 'UniswapV2: PAIR_EXISTS'); // single check is sufficient\n        bytes memory bytecode = type(UniswapV2Pair).creationCode;\n        bytes32 salt = keccak256(abi.encodePacked(token0, token1));\n        assembly {\n            pair := create2(0, add(bytecode, 32), mload(bytecode), salt)\n        }\n        UniswapV2Pair(pair).initialize(token0, token1);\n        getPair[token0][token1] = pair;\n        getPair[token1][token0] = pair; // populate mapping in the reverse direction\n        allPairs.push(pair);\n        emit PairCreated(token0, token1, pair, allPairs.length);\n    }\n\n    function setFeeTo(address _feeTo) external override {\n        require(msg.sender == feeSetter, 'UniswapV2: FORBIDDEN');\n        feeTo = _feeTo;\n    }\n\n    function setWithdrawFeeTo(address _withdrawFeeTo) external override {\n        require(msg.sender == feeSetter, 'UniswapV2: FORBIDDEN');\n        withdrawFeeTo = _withdrawFeeTo;\n    }\n\n    function setMigrator(address _migrator) external override {\n        require(msg.sender == feeSetter, 'UniswapV2: FORBIDDEN');\n        migrator = _migrator;\n    }\n\n    function setFeeSetter(address _feeSetter) external override {\n        require(msg.sender == feeSetter, 'UniswapV2: FORBIDDEN');\n        feeSetter = _feeSetter;\n    }\n\n    function setSwapFee(uint _swapFee) external override {\n        require(msg.sender == feeSetter, 'UniswapV2: FORBIDDEN');\n        require(1 <= _swapFee, \"UniswapV2: invalid swap fee\"); // 0.1% = 1/1000\n        require(6 >= _swapFee, \"UniswapV2: invalid swap fee\"); // 0.6% = 6/1000\n        swapFee = _swapFee;\n    }\n\n     function setSoneConvert(address _soneConvert) external override{\n        require(msg.sender == feeSetter, 'UniswapV2: FORBIDDEN');\n        soneConvert = _soneConvert;\n    }\n}\n",
  "sourcePath": "/Users/danielpham/Documentation/01_VNext/02_2021/03_S-ONE_Finance/02_Source/sone-smart-contract/contracts/uniswapv2/UniswapV2Factory.sol",
  "compiler": {
    "name": "solc",
    "version": "0.6.12+commit.27d51765.Emscripten.clang"
  },
  "schemaVersion": "3.4.1",
  "updatedAt": "2021-06-16T02:58:23.035Z",
  "devdoc": {
    "kind": "dev",
    "methods": {},
    "version": 1
  },
  "userdoc": {
    "kind": "user",
    "methods": {},
    "version": 1
  }
}